{
    "abi": [
        {
            "type": "constructor",
            "inputs": [
                {
                    "name": "_dexPair",
                    "type": "address",
                    "internalType": "address"
                }
            ],
            "stateMutability": "nonpayable"
        },
        {
            "type": "function",
            "name": "allowance",
            "inputs": [
                {
                    "name": "owner",
                    "type": "address",
                    "internalType": "address"
                },
                {
                    "name": "spender",
                    "type": "address",
                    "internalType": "address"
                }
            ],
            "outputs": [
                {
                    "name": "",
                    "type": "uint256",
                    "internalType": "uint256"
                }
            ],
            "stateMutability": "view"
        },
        {
            "type": "function",
            "name": "approve",
            "inputs": [
                {
                    "name": "spender",
                    "type": "address",
                    "internalType": "address"
                },
                {
                    "name": "amount",
                    "type": "uint256",
                    "internalType": "uint256"
                }
            ],
            "outputs": [
                {
                    "name": "",
                    "type": "bool",
                    "internalType": "bool"
                }
            ],
            "stateMutability": "nonpayable"
        },
        {
            "type": "function",
            "name": "balanceOf",
            "inputs": [
                {
                    "name": "account",
                    "type": "address",
                    "internalType": "address"
                }
            ],
            "outputs": [
                {
                    "name": "",
                    "type": "uint256",
                    "internalType": "uint256"
                }
            ],
            "stateMutability": "view"
        },
        {
            "type": "function",
            "name": "claimAirdrop",
            "inputs": [],
            "outputs": [],
            "stateMutability": "nonpayable"
        },
        {
            "type": "function",
            "name": "claimed",
            "inputs": [
                {
                    "name": "",
                    "type": "address",
                    "internalType": "address"
                }
            ],
            "outputs": [
                {
                    "name": "",
                    "type": "bool",
                    "internalType": "bool"
                }
            ],
            "stateMutability": "view"
        },
        {
            "type": "function",
            "name": "decimals",
            "inputs": [],
            "outputs": [
                {
                    "name": "",
                    "type": "uint8",
                    "internalType": "uint8"
                }
            ],
            "stateMutability": "view"
        },
        {
            "type": "function",
            "name": "decreaseAllowance",
            "inputs": [
                {
                    "name": "spender",
                    "type": "address",
                    "internalType": "address"
                },
                {
                    "name": "subtractedValue",
                    "type": "uint256",
                    "internalType": "uint256"
                }
            ],
            "outputs": [
                {
                    "name": "",
                    "type": "bool",
                    "internalType": "bool"
                }
            ],
            "stateMutability": "nonpayable"
        },
        {
            "type": "function",
            "name": "dexPair",
            "inputs": [],
            "outputs": [
                {
                    "name": "",
                    "type": "address",
                    "internalType": "address"
                }
            ],
            "stateMutability": "view"
        },
        {
            "type": "function",
            "name": "increaseAllowance",
            "inputs": [
                {
                    "name": "spender",
                    "type": "address",
                    "internalType": "address"
                },
                {
                    "name": "addedValue",
                    "type": "uint256",
                    "internalType": "uint256"
                }
            ],
            "outputs": [
                {
                    "name": "",
                    "type": "bool",
                    "internalType": "bool"
                }
            ],
            "stateMutability": "nonpayable"
        },
        {
            "type": "function",
            "name": "name",
            "inputs": [],
            "outputs": [
                {
                    "name": "",
                    "type": "string",
                    "internalType": "string"
                }
            ],
            "stateMutability": "view"
        },
        {
            "type": "function",
            "name": "owner",
            "inputs": [],
            "outputs": [
                {
                    "name": "",
                    "type": "address",
                    "internalType": "address"
                }
            ],
            "stateMutability": "view"
        },
        {
            "type": "function",
            "name": "setDexPair",
            "inputs": [
                {
                    "name": "_pair",
                    "type": "address",
                    "internalType": "address"
                }
            ],
            "outputs": [],
            "stateMutability": "nonpayable"
        },
        {
            "type": "function",
            "name": "symbol",
            "inputs": [],
            "outputs": [
                {
                    "name": "",
                    "type": "string",
                    "internalType": "string"
                }
            ],
            "stateMutability": "view"
        },
        {
            "type": "function",
            "name": "totalSupply",
            "inputs": [],
            "outputs": [
                {
                    "name": "",
                    "type": "uint256",
                    "internalType": "uint256"
                }
            ],
            "stateMutability": "view"
        },
        {
            "type": "function",
            "name": "transfer",
            "inputs": [
                {
                    "name": "to",
                    "type": "address",
                    "internalType": "address"
                },
                {
                    "name": "amount",
                    "type": "uint256",
                    "internalType": "uint256"
                }
            ],
            "outputs": [
                {
                    "name": "",
                    "type": "bool",
                    "internalType": "bool"
                }
            ],
            "stateMutability": "nonpayable"
        },
        {
            "type": "function",
            "name": "transferFrom",
            "inputs": [
                {
                    "name": "from",
                    "type": "address",
                    "internalType": "address"
                },
                {
                    "name": "to",
                    "type": "address",
                    "internalType": "address"
                },
                {
                    "name": "amount",
                    "type": "uint256",
                    "internalType": "uint256"
                }
            ],
            "outputs": [
                {
                    "name": "",
                    "type": "bool",
                    "internalType": "bool"
                }
            ],
            "stateMutability": "nonpayable"
        },
        {
            "type": "event",
            "name": "Approval",
            "inputs": [
                {
                    "name": "owner",
                    "type": "address",
                    "indexed": true,
                    "internalType": "address"
                },
                {
                    "name": "spender",
                    "type": "address",
                    "indexed": true,
                    "internalType": "address"
                },
                {
                    "name": "value",
                    "type": "uint256",
                    "indexed": false,
                    "internalType": "uint256"
                }
            ],
            "anonymous": false
        },
        {
            "type": "event",
            "name": "Transfer",
            "inputs": [
                {
                    "name": "from",
                    "type": "address",
                    "indexed": true,
                    "internalType": "address"
                },
                {
                    "name": "to",
                    "type": "address",
                    "indexed": true,
                    "internalType": "address"
                },
                {
                    "name": "value",
                    "type": "uint256",
                    "indexed": false,
                    "internalType": "uint256"
                }
            ],
            "anonymous": false
        }
    ],
    "bytecode": {
        "object": "0x60a060405234801562000010575f80fd5b50604051620010473803806200104783398101604081905262000033916200028c565b6040518060400160405280601881526020017f436c61696d2053656c6c20426c6f636b656420546f6b656e00000000000000008152506040518060400160405280600481526020016310d4d09560e21b81525081600390816200009791906200035a565b506004620000a682826200035a565b5050336080819052600580546001600160a01b0319166001600160a01b038516179055620000e0915069d3c21bcecceda1000000620000e7565b5062000448565b6001600160a01b038216620001435760405162461bcd60e51b815260206004820152601f60248201527f45524332303a206d696e7420746f20746865207a65726f20616464726573730060448201526064015b60405180910390fd5b620001505f8383620001b9565b8060025f82825462000163919062000422565b90915550506001600160a01b0382165f81815260208181526040808320805486019055518481527fddf252ad1be2c89b69c2b068fc378daa952ba7f163c4a11628f55a4df523b3ef910160405180910390a35050565b6001600160a01b0383161580620001d757506001600160a01b038216155b15620001e257505050565b6080516001600160a01b0316836001600160a01b0316036200020357505050565b6005546001600160a01b0383811691161480156200023857506001600160a01b0383165f9081526006602052604090205460ff165b15620002875760405162461bcd60e51b815260206004820152601d60248201527f53454c4c2044495341424c45443a20636c61696d65642077616c6c657400000060448201526064016200013a565b505050565b5f602082840312156200029d575f80fd5b81516001600160a01b0381168114620002b4575f80fd5b9392505050565b634e487b7160e01b5f52604160045260245ffd5b600181811c90821680620002e457607f821691505b6020821081036200030357634e487b7160e01b5f52602260045260245ffd5b50919050565b601f82111562000287575f81815260208120601f850160051c81016020861015620003315750805b601f850160051c820191505b8181101562000352578281556001016200033d565b505050505050565b81516001600160401b03811115620003765762000376620002bb565b6200038e81620003878454620002cf565b8462000309565b602080601f831160018114620003c4575f8415620003ac5750858301515b5f19600386901b1c1916600185901b17855562000352565b5f85815260208120601f198616915b82811015620003f457888601518255948401946001909101908401620003d3565b50858210156200041257878501515f19600388901b60f8161c191681555b5050505050600190811b01905550565b808201808211156200044257634e487b7160e01b5f52601160045260245ffd5b92915050565b608051610bd86200046f5f395f81816101be0152818161049301526109710152610bd85ff3fe608060405234801561000f575f80fd5b50600436106100fb575f3560e01c80638da5cb5b11610093578063ae36f5c811610063578063ae36f5c814610226578063c884ef8314610239578063dd62ed3e1461025b578063f242ab411461026e575f80fd5b80638da5cb5b146101b957806395d89b41146101f8578063a457c2d714610200578063a9059cbb14610213575f80fd5b8063313ce567116100ce578063313ce5671461016557806339509351146101745780635b88349d1461018757806370a0823114610191575f80fd5b806306fdde03146100ff578063095ea7b31461011d57806318160ddd1461014057806323b872dd14610152575b5f80fd5b610107610281565b6040516101149190610a33565b60405180910390f35b61013061012b366004610a99565b610311565b6040519015158152602001610114565b6002545b604051908152602001610114565b610130610160366004610ac1565b61032a565b60405160128152602001610114565b610130610182366004610a99565b61034d565b61018f61036e565b005b61014461019f366004610afa565b6001600160a01b03165f9081526020819052604090205490565b6101e07f000000000000000000000000000000000000000000000000000000000000000081565b6040516001600160a01b039091168152602001610114565b6101076103f2565b61013061020e366004610a99565b610401565b610130610221366004610a99565b61047b565b61018f610234366004610afa565b610488565b610130610247366004610afa565b60066020525f908152604090205460ff1681565b610144610269366004610b1a565b61050e565b6005546101e0906001600160a01b031681565b60606003805461029090610b4b565b80601f01602080910402602001604051908101604052809291908181526020018280546102bc90610b4b565b80156103075780601f106102de57610100808354040283529160200191610307565b820191905f5260205f20905b8154815290600101906020018083116102ea57829003601f168201915b5050505050905090565b5f3361031e818585610538565b60019150505b92915050565b5f3361033785828561065b565b6103428585856106d3565b506001949350505050565b5f3361031e81858561035f838361050e565b6103699190610b83565b610538565b335f9081526006602052604090205460ff16156103c45760405162461bcd60e51b815260206004820152600f60248201526e105b1c9958591e4818db185a5b5959608a1b60448201526064015b60405180910390fd5b335f818152600660205260409020805460ff191660011790556103f090683635c9adc5dea00000610880565b565b60606004805461029090610b4b565b5f338161040e828661050e565b90508381101561046e5760405162461bcd60e51b815260206004820152602560248201527f45524332303a2064656372656173656420616c6c6f77616e63652062656c6f77604482015264207a65726f60d81b60648201526084016103bb565b6103428286868403610538565b5f3361031e8185856106d3565b336001600160a01b037f000000000000000000000000000000000000000000000000000000000000000016146104ec5760405162461bcd60e51b81526020600482015260096024820152682737ba1037bbb732b960b91b60448201526064016103bb565b600580546001600160a01b0319166001600160a01b0392909216919091179055565b6001600160a01b039182165f90815260016020908152604080832093909416825291909152205490565b6001600160a01b03831661059a5760405162461bcd60e51b8152602060048201526024808201527f45524332303a20617070726f76652066726f6d20746865207a65726f206164646044820152637265737360e01b60648201526084016103bb565b6001600160a01b0382166105fb5760405162461bcd60e51b815260206004820152602260248201527f45524332303a20617070726f766520746f20746865207a65726f206164647265604482015261737360f01b60648201526084016103bb565b6001600160a01b038381165f8181526001602090815260408083209487168084529482529182902085905590518481527f8c5be1e5ebec7d5bd14f71427d1e84f3dd0314c0f7b2291e5b200ac8c7c3b925910160405180910390a3505050565b5f610666848461050e565b90505f1981146106cd57818110156106c05760405162461bcd60e51b815260206004820152601d60248201527f45524332303a20696e73756666696369656e7420616c6c6f77616e636500000060448201526064016103bb565b6106cd8484848403610538565b50505050565b6001600160a01b0383166107375760405162461bcd60e51b815260206004820152602560248201527f45524332303a207472616e736665722066726f6d20746865207a65726f206164604482015264647265737360d81b60648201526084016103bb565b6001600160a01b0382166107995760405162461bcd60e51b815260206004820152602360248201527f45524332303a207472616e7366657220746f20746865207a65726f206164647260448201526265737360e81b60648201526084016103bb565b6107a4838383610948565b6001600160a01b0383165f908152602081905260409020548181101561081b5760405162461bcd60e51b815260206004820152602660248201527f45524332303a207472616e7366657220616d6f756e7420657863656564732062604482015265616c616e636560d01b60648201526084016103bb565b6001600160a01b038481165f81815260208181526040808320878703905593871680835291849020805487019055925185815290927fddf252ad1be2c89b69c2b068fc378daa952ba7f163c4a11628f55a4df523b3ef910160405180910390a36106cd565b6001600160a01b0382166108d65760405162461bcd60e51b815260206004820152601f60248201527f45524332303a206d696e7420746f20746865207a65726f20616464726573730060448201526064016103bb565b6108e15f8383610948565b8060025f8282546108f29190610b83565b90915550506001600160a01b0382165f81815260208181526040808320805486019055518481527fddf252ad1be2c89b69c2b068fc378daa952ba7f163c4a11628f55a4df523b3ef910160405180910390a35050565b6001600160a01b038316158061096557506001600160a01b038216155b1561096f57505050565b7f00000000000000000000000000000000000000000000000000000000000000006001600160a01b0316836001600160a01b0316036109ad57505050565b6005546001600160a01b0383811691161480156109e157506001600160a01b0383165f9081526006602052604090205460ff165b15610a2e5760405162461bcd60e51b815260206004820152601d60248201527f53454c4c2044495341424c45443a20636c61696d65642077616c6c657400000060448201526064016103bb565b505050565b5f6020808352835180828501525f5b81811015610a5e57858101830151858201604001528201610a42565b505f604082860101526040601f19601f8301168501019250505092915050565b80356001600160a01b0381168114610a94575f80fd5b919050565b5f8060408385031215610aaa575f80fd5b610ab383610a7e565b946020939093013593505050565b5f805f60608486031215610ad3575f80fd5b610adc84610a7e565b9250610aea60208501610a7e565b9150604084013590509250925092565b5f60208284031215610b0a575f80fd5b610b1382610a7e565b9392505050565b5f8060408385031215610b2b575f80fd5b610b3483610a7e565b9150610b4260208401610a7e565b90509250929050565b600181811c90821680610b5f57607f821691505b602082108103610b7d57634e487b7160e01b5f52602260045260245ffd5b50919050565b8082018082111561032457634e487b7160e01b5f52601160045260245ffdfea26469706673582212202d360f2fb20227c512f23f12023d811e1a21d3ee06651e813b8f2253a5a86a2264736f6c63430008140033",
        "linkReferences": {}
    },
    "methodIdentifiers": {
        "allowance(address,address)": "dd62ed3e",
        "approve(address,uint256)": "095ea7b3",
        "balanceOf(address)": "70a08231",
        "claimAirdrop()": "5b88349d",
        "claimed(address)": "c884ef83",
        "decimals()": "313ce567",
        "decreaseAllowance(address,uint256)": "a457c2d7",
        "dexPair()": "f242ab41",
        "increaseAllowance(address,uint256)": "39509351",
        "name()": "06fdde03",
        "owner()": "8da5cb5b",
        "setDexPair(address)": "ae36f5c8",
        "symbol()": "95d89b41",
        "totalSupply()": "18160ddd",
        "transfer(address,uint256)": "a9059cbb",
        "transferFrom(address,address,uint256)": "23b872dd"
    },
    "id": 4
}