{
  "abi": [
    {
      "type": "constructor",
      "inputs": [
        {
          "name": "_controller",
          "type": "address",
          "internalType": "address"
        }
      ],
      "stateMutability": "nonpayable"
    },
    {
      "type": "receive",
      "stateMutability": "payable"
    },
    {
      "type": "function",
      "name": "LTV",
      "inputs": [],
      "outputs": [
        {
          "name": "",
          "type": "uint256",
          "internalType": "uint256"
        }
      ],
      "stateMutability": "view"
    },
    {
      "type": "function",
      "name": "availableCredit",
      "inputs": [
        {
          "name": "user",
          "type": "address",
          "internalType": "address"
        }
      ],
      "outputs": [
        {
          "name": "",
          "type": "uint256",
          "internalType": "uint256"
        }
      ],
      "stateMutability": "view"
    },
    {
      "type": "function",
      "name": "blockMerchant",
      "inputs": [
        {
          "name": "merchant",
          "type": "address",
          "internalType": "address"
        }
      ],
      "outputs": [],
      "stateMutability": "nonpayable"
    },
    {
      "type": "function",
      "name": "creditBorrower",
      "inputs": [
        {
          "name": "",
          "type": "bytes32",
          "internalType": "bytes32"
        }
      ],
      "outputs": [
        {
          "name": "",
          "type": "address",
          "internalType": "address"
        }
      ],
      "stateMutability": "view"
    },
    {
      "type": "function",
      "name": "creditPositions",
      "inputs": [
        {
          "name": "",
          "type": "bytes32",
          "internalType": "bytes32"
        }
      ],
      "outputs": [
        {
          "name": "principal",
          "type": "uint256",
          "internalType": "uint256"
        },
        {
          "name": "remaining",
          "type": "uint256",
          "internalType": "uint256"
        },
        {
          "name": "installmentAmount",
          "type": "uint256",
          "internalType": "uint256"
        },
        {
          "name": "installmentsPaid",
          "type": "uint256",
          "internalType": "uint256"
        },
        {
          "name": "totalInstallments",
          "type": "uint256",
          "internalType": "uint256"
        },
        {
          "name": "interval",
          "type": "uint256",
          "internalType": "uint256"
        },
        {
          "name": "nextDueDate",
          "type": "uint256",
          "internalType": "uint256"
        },
        {
          "name": "defaulted",
          "type": "bool",
          "internalType": "bool"
        },
        {
          "name": "closed",
          "type": "bool",
          "internalType": "bool"
        },
        {
          "name": "pocket",
          "type": "address",
          "internalType": "address"
        }
      ],
      "stateMutability": "view"
    },
    {
      "type": "function",
      "name": "deposit",
      "inputs": [],
      "outputs": [],
      "stateMutability": "payable"
    },
    {
      "type": "function",
      "name": "flagMerchant",
      "inputs": [
        {
          "name": "merchant",
          "type": "address",
          "internalType": "address"
        }
      ],
      "outputs": [],
      "stateMutability": "nonpayable"
    },
    {
      "type": "function",
      "name": "liquidate",
      "inputs": [
        {
          "name": "requestId",
          "type": "bytes32",
          "internalType": "bytes32"
        }
      ],
      "outputs": [],
      "stateMutability": "nonpayable"
    },
    {
      "type": "function",
      "name": "merchantBlocked",
      "inputs": [
        {
          "name": "",
          "type": "address",
          "internalType": "address"
        }
      ],
      "outputs": [
        {
          "name": "",
          "type": "bool",
          "internalType": "bool"
        }
      ],
      "stateMutability": "view"
    },
    {
      "type": "function",
      "name": "merchantFlagCount",
      "inputs": [
        {
          "name": "",
          "type": "address",
          "internalType": "address"
        }
      ],
      "outputs": [
        {
          "name": "",
          "type": "uint256",
          "internalType": "uint256"
        }
      ],
      "stateMutability": "view"
    },
    {
      "type": "function",
      "name": "owner",
      "inputs": [],
      "outputs": [
        {
          "name": "",
          "type": "address",
          "internalType": "address"
        }
      ],
      "stateMutability": "view"
    },
    {
      "type": "function",
      "name": "pocketController",
      "inputs": [],
      "outputs": [
        {
          "name": "",
          "type": "address",
          "internalType": "address"
        }
      ],
      "stateMutability": "view"
    },
    {
      "type": "function",
      "name": "positions",
      "inputs": [
        {
          "name": "",
          "type": "address",
          "internalType": "address"
        }
      ],
      "outputs": [
        {
          "name": "deposited",
          "type": "uint256",
          "internalType": "uint256"
        },
        {
          "name": "borrowed",
          "type": "uint256",
          "internalType": "uint256"
        }
      ],
      "stateMutability": "view"
    },
    {
      "type": "function",
      "name": "repayInstallment",
      "inputs": [
        {
          "name": "requestId",
          "type": "bytes32",
          "internalType": "bytes32"
        }
      ],
      "outputs": [],
      "stateMutability": "payable"
    },
    {
      "type": "function",
      "name": "requestCredit",
      "inputs": [
        {
          "name": "merchant",
          "type": "address",
          "internalType": "address"
        },
        {
          "name": "amount",
          "type": "uint256",
          "internalType": "uint256"
        },
        {
          "name": "installmentCount",
          "type": "uint256",
          "internalType": "uint256"
        },
        {
          "name": "interval",
          "type": "uint256",
          "internalType": "uint256"
        },
        {
          "name": "salt",
          "type": "uint256",
          "internalType": "uint256"
        }
      ],
      "outputs": [
        {
          "name": "requestId",
          "type": "bytes32",
          "internalType": "bytes32"
        },
        {
          "name": "pocket",
          "type": "address",
          "internalType": "address"
        }
      ],
      "stateMutability": "nonpayable"
    },
    {
      "type": "function",
      "name": "unblockMerchant",
      "inputs": [
        {
          "name": "merchant",
          "type": "address",
          "internalType": "address"
        }
      ],
      "outputs": [],
      "stateMutability": "nonpayable"
    },
    {
      "type": "function",
      "name": "userHasFlagged",
      "inputs": [
        {
          "name": "",
          "type": "address",
          "internalType": "address"
        },
        {
          "name": "",
          "type": "address",
          "internalType": "address"
        }
      ],
      "outputs": [
        {
          "name": "",
          "type": "bool",
          "internalType": "bool"
        }
      ],
      "stateMutability": "view"
    },
    {
      "type": "event",
      "name": "CreditRequested",
      "inputs": [
        {
          "name": "requestId",
          "type": "bytes32",
          "indexed": true,
          "internalType": "bytes32"
        },
        {
          "name": "user",
          "type": "address",
          "indexed": true,
          "internalType": "address"
        },
        {
          "name": "merchant",
          "type": "address",
          "indexed": true,
          "internalType": "address"
        },
        {
          "name": "pocket",
          "type": "address",
          "indexed": false,
          "internalType": "address"
        },
        {
          "name": "principal",
          "type": "uint256",
          "indexed": false,
          "internalType": "uint256"
        },
        {
          "name": "installmentAmount",
          "type": "uint256",
          "indexed": false,
          "internalType": "uint256"
        },
        {
          "name": "totalInstallments",
          "type": "uint256",
          "indexed": false,
          "internalType": "uint256"
        },
        {
          "name": "interval",
          "type": "uint256",
          "indexed": false,
          "internalType": "uint256"
        },
        {
          "name": "nextDueDate",
          "type": "uint256",
          "indexed": false,
          "internalType": "uint256"
        }
      ],
      "anonymous": false
    },
    {
      "type": "event",
      "name": "Deposited",
      "inputs": [
        {
          "name": "user",
          "type": "address",
          "indexed": true,
          "internalType": "address"
        },
        {
          "name": "amount",
          "type": "uint256",
          "indexed": false,
          "internalType": "uint256"
        },
        {
          "name": "totalDeposited",
          "type": "uint256",
          "indexed": false,
          "internalType": "uint256"
        }
      ],
      "anonymous": false
    },
    {
      "type": "event",
      "name": "InstallmentRepaid",
      "inputs": [
        {
          "name": "requestId",
          "type": "bytes32",
          "indexed": true,
          "internalType": "bytes32"
        },
        {
          "name": "user",
          "type": "address",
          "indexed": true,
          "internalType": "address"
        },
        {
          "name": "amount",
          "type": "uint256",
          "indexed": false,
          "internalType": "uint256"
        },
        {
          "name": "remaining",
          "type": "uint256",
          "indexed": false,
          "internalType": "uint256"
        },
        {
          "name": "installmentsPaid",
          "type": "uint256",
          "indexed": false,
          "internalType": "uint256"
        },
        {
          "name": "nextDueDate",
          "type": "uint256",
          "indexed": false,
          "internalType": "uint256"
        }
      ],
      "anonymous": false
    },
    {
      "type": "event",
      "name": "LoanClosed",
      "inputs": [
        {
          "name": "requestId",
          "type": "bytes32",
          "indexed": true,
          "internalType": "bytes32"
        },
        {
          "name": "user",
          "type": "address",
          "indexed": true,
          "internalType": "address"
        }
      ],
      "anonymous": false
    },
    {
      "type": "event",
      "name": "LoanLiquidated",
      "inputs": [
        {
          "name": "requestId",
          "type": "bytes32",
          "indexed": true,
          "internalType": "bytes32"
        },
        {
          "name": "user",
          "type": "address",
          "indexed": true,
          "internalType": "address"
        },
        {
          "name": "principal",
          "type": "uint256",
          "indexed": false,
          "internalType": "uint256"
        }
      ],
      "anonymous": false
    },
    {
      "type": "error",
      "name": "AlreadyDefaulted",
      "inputs": []
    },
    {
      "type": "error",
      "name": "AlreadyRepaid",
      "inputs": []
    },
    {
      "type": "error",
      "name": "CreditAlreadyExists",
      "inputs": []
    },
    {
      "type": "error",
      "name": "CreditNotFound",
      "inputs": []
    },
    {
      "type": "error",
      "name": "IncorrectRepayment",
      "inputs": []
    },
    {
      "type": "error",
      "name": "InstallmentPastDue",
      "inputs": []
    },
    {
      "type": "error",
      "name": "InsufficientCredit",
      "inputs": []
    },
    {
      "type": "error",
      "name": "InvalidController",
      "inputs": []
    },
    {
      "type": "error",
      "name": "InvalidDuration",
      "inputs": []
    },
    {
      "type": "error",
      "name": "InvalidInstallmentCount",
      "inputs": []
    },
    {
      "type": "error",
      "name": "LoanClosedError",
      "inputs": []
    },
    {
      "type": "error",
      "name": "LoanDefaulted",
      "inputs": []
    },
    {
      "type": "error",
      "name": "NotDefaulted",
      "inputs": []
    },
    {
      "type": "error",
      "name": "NotOwner",
      "inputs": []
    },
    {
      "type": "error",
      "name": "Unauthorized",
      "inputs": []
    },
    {
      "type": "error",
      "name": "ZeroDeposit",
      "inputs": []
    }
  ],
  "bytecode": {
    "object": "0x60a060405234801561000f575f80fd5b5060405161125238038061125283398101604081905261002e91610078565b6001600160a01b038116610055576040516336abb4df60e11b815260040160405180910390fd5b6001600160a01b0316608052600680546001600160a01b031916331790556100a5565b5f60208284031215610088575f80fd5b81516001600160a01b038116811461009e575f80fd5b9392505050565b60805161118e6100c45f395f81816103b00152610833015261118e5ff3fe6080604052600436106100fd575f3560e01c806382e43d1111610092578063a2fe6e3111610062578063a2fe6e31146103d2578063c086454e146103fd578063d0e30db01461041c578063e4f7091114610424578063f5917ebe1461045d575f80fd5b806382e43d111461029b5780638da5cb5b146102ae5780639226b72c146102cd57806393461a911461039f575f80fd5b806355f57510116100cd57806355f57510146101c75780635886216f1461020e57806362965d8e1461023b5780637f4924611461024f575f80fd5b80630a71096e1461010857806311a236b71461012957806327c7c1c91461016c5780632fd0e9e51461018b575f80fd5b3661010457005b5f80fd5b348015610113575f80fd5b50610127610122366004610fd6565b61047c565b005b348015610134575f80fd5b50610157610143366004611004565b60056020525f908152604090205460ff1681565b60405190151581526020015b60405180910390f35b348015610177575f80fd5b50610127610186366004611004565b6105bd565b348015610196575f80fd5b506101aa6101a5366004611026565b6106a1565b604080519283526001600160a01b03909116602083015201610163565b3480156101d2575f80fd5b506101f96101e1366004611004565b5f602081905290815260409020805460019091015482565b60408051928352602083019190915201610163565b348015610219575f80fd5b5061022d610228366004611004565b610b7a565b604051908152602001610163565b348015610246575f80fd5b5061022d604681565b34801561025a575f80fd5b50610283610269366004610fd6565b60026020525f90815260409020546001600160a01b031681565b6040516001600160a01b039091168152602001610163565b6101276102a9366004610fd6565b610bf5565b3480156102b9575f80fd5b50600654610283906001600160a01b031681565b3480156102d8575f80fd5b506103486102e7366004610fd6565b600160208190525f918252604090912080549181015460028201546003830154600484015460058501546006860154600790960154949593949293919290919060ff808216916101008104909116906201000090046001600160a01b03168a565b604080519a8b5260208b0199909952978901969096526060880194909452608087019290925260a086015260c0850152151560e084015215156101008301526001600160a01b031661012082015261014001610163565b3480156103aa575f80fd5b506102837f000000000000000000000000000000000000000000000000000000000000000081565b3480156103dd575f80fd5b5061022d6103ec366004611004565b60036020525f908152604090205481565b348015610408575f80fd5b50610127610417366004611004565b610e64565b610127610ed5565b34801561042f575f80fd5b5061015761043e366004611066565b600460209081525f928352604080842090915290825290205460ff1681565b348015610468575f80fd5b50610127610477366004611004565b610f62565b5f81815260016020526040812080549091036104ab57604051630e57d9e360e41b815260040160405180910390fd5b6007810154610100900460ff16156104d6576040516311c4429960e31b815260040160405180910390fd5b600781015460ff16156104fc5760405163794e5af160e11b815260040160405180910390fd5b806006015442116105205760405163038cbd4b60e31b815260040160405180910390fd5b5f8281526002602090815260408083205460078501805460ff1916600190811790915585546001600160a01b03909216808652938590529184209091018054929391929091906105719084906110b1565b909155505081546040519081526001600160a01b0382169084907fcab88a55906c5830a49dddd8b31d115294a5e6c4210f25fe140530a39c51dc749060200160405180910390a3505050565b6001600160a01b0381166105ec5760405162461bcd60e51b81526004016105e3906110ca565b60405180910390fd5b335f9081526004602090815260408083206001600160a01b038516845290915290205460ff16156106515760405162461bcd60e51b815260206004820152600f60248201526e105b1c9958591e48199b1859d9d959608a1b60448201526064016105e3565b335f9081526004602090815260408083206001600160a01b03851684528252808320805460ff19166001908117909155600390925282208054919290916106999084906110f4565b909155505050565b6001600160a01b0385165f90815260056020526040812054819060ff16156106fe5760405162461bcd60e51b815260206004820152601060248201526f13595c98da185b9d08189b1bd8dad95960821b60448201526064016105e3565b845f0361071e57604051635491186360e11b815260040160405180910390fd5b835f0361073e57604051637616640160e01b815260040160405180910390fd5b61074733610b7a565b86111561076757604051638ac4bc7360e01b815260040160405180910390fd5b604080513360208201526001600160a01b03891691810191909152606081018790526080810186905260a0810185905260c0810184905260e00160408051601f1981840301815291815281516020928301205f81815260029093529120549092506001600160a01b0316156107ef57604051631057da3d60e01b815260040160405180910390fd5b335f908152602081905260408120600181018054919289926108129084906110f4565b9091555050604051630bda42e160e21b8152336004820152602481018590527f00000000000000000000000000000000000000000000000000000000000000006001600160a01b031690632f690b84906044016020604051808303815f875af1158015610881573d5f803e3d5ffd5b505050506040513d601f19601f820116820180604052508101906108a59190611107565b91505f826001600160a01b0316886040515f6040518083038185875af1925050503d805f81146108f0576040519150601f19603f3d011682016040523d82523d5f602084013e6108f5565b606091505b50509050806109395760405162461bcd60e51b815260206004820152601060248201526f1413d0d2d15517d195539117d190525360821b60448201526064016105e3565b5f610944888a611122565b90505f811161098d5760405162461bcd60e51b8152602060048201526015602482015274125b9cdd185b1b1b595b9d081d1bdbc81cdb585b1b605a1b60448201526064016105e3565b5f61099888426110f4565b90506040518061014001604052808b81526020018b81526020018381526020015f81526020018a81526020018981526020018281526020015f151581526020015f15158152602001866001600160a01b031681525060015f8881526020019081526020015f205f820151815f01556020820151816001015560408201518160020155606082015181600301556080820151816004015560a0820151816005015560c0820151816006015560e0820151816007015f6101000a81548160ff0219169083151502179055506101008201518160070160016101000a81548160ff0219169083151502179055506101208201518160070160026101000a8154816001600160a01b0302191690836001600160a01b031602179055509050503360025f8881526020019081526020015f205f6101000a8154816001600160a01b0302191690836001600160a01b031602179055508a6001600160a01b0316336001600160a01b0316877fd8771f30cb1239f951b996d6a9a87804aa34089a7a1177f42eceec60c93e421b888e878f8f89604051610b64969594939291906001600160a01b03969096168652602086019490945260408501929092526060840152608083015260a082015260c00190565b60405180910390a4505050509550959350505050565b6001600160a01b0381165f908152602081815260408083208151808301909252805480835260019091015492820192909252908290606490610bbe90604690611141565b610bc89190611122565b905081602001518111610bde57505f9392505050565b6020820151610bed90826110b1565b949350505050565b5f8181526001602052604081208054909103610c2457604051630e57d9e360e41b815260040160405180910390fd5b600781015460ff1615610c4a57604051633a4047b360e11b815260040160405180910390fd5b6007810154610100900460ff1615610c75576040516311c4429960e31b815260040160405180910390fd5b8060060154421115610c9a57604051632bad8b6b60e01b815260040160405180910390fd5b5f828152600260205260409020546001600160a01b0316338114610cd0576040516282b42960e81b815260040160405180910390fd5b5f826004015483600301546001610ce791906110f4565b14610cf6578260020154610cfc565b82600101545b9050803414610d1e57604051635ab7b6ad60e11b815260040160405180910390fd5b34836001015f828254610d3191906110b1565b925050819055506001836003015f828254610d4c91906110f4565b9091555050600183015415610d78578260050154836006015f828254610d7291906110f4565b90915550505b60018301546003840154600685015460408051348152602081019490945283019190915260608201526001600160a01b0383169085907ff90d826443cc5ca55f1081cf2d1f95eb8ef15a0354df3f5eb4807a1b8777e3dd9060800160405180910390a382600101545f03610e5e5760078301805461ff00191661010017905582546001600160a01b0383165f9081526020819052604081206001018054909190610e239084906110b1565b90915550506040516001600160a01b0383169085907f27810a468d84d73b8240e706dd0a124a8ce3778bc6ebb13d643a61efcd26f1f0905f90a35b50505050565b6006546001600160a01b03163314610e8f576040516330cd747160e01b815260040160405180910390fd5b6001600160a01b038116610eb55760405162461bcd60e51b81526004016105e3906110ca565b6001600160a01b03165f908152600560205260409020805460ff19169055565b345f03610ef5576040516356316e8760e01b815260040160405180910390fd5b335f908152602081905260408120805490913491839190610f179084906110f4565b9091555050805460405133917f73a19dd210f1a7f902193214c0ee91dd35ee5b4d920cba8d519eca65a7b488ca91610f5791348252602082015260400190565b60405180910390a250565b6006546001600160a01b03163314610f8d576040516330cd747160e01b815260040160405180910390fd5b6001600160a01b038116610fb35760405162461bcd60e51b81526004016105e3906110ca565b6001600160a01b03165f908152600560205260409020805460ff19166001179055565b5f60208284031215610fe6575f80fd5b5035919050565b6001600160a01b0381168114611001575f80fd5b50565b5f60208284031215611014575f80fd5b813561101f81610fed565b9392505050565b5f805f805f60a0868803121561103a575f80fd5b853561104581610fed565b97602087013597506040870135966060810135965060800135945092505050565b5f8060408385031215611077575f80fd5b823561108281610fed565b9150602083013561109281610fed565b809150509250929050565b634e487b7160e01b5f52601160045260245ffd5b818103818111156110c4576110c461109d565b92915050565b60208082526010908201526f125b9d985b1a59081b595c98da185b9d60821b604082015260600190565b808201808211156110c4576110c461109d565b5f60208284031215611117575f80fd5b815161101f81610fed565b5f8261113c57634e487b7160e01b5f52601260045260245ffd5b500490565b80820281158282048414176110c4576110c461109d56fea26469706673582212200cd885cc8ea6711948823eb6f618170eb99859923ab25b5010d4a32859e92a9164736f6c63430008180033",
    "linkReferences": {}
  },
  "methodIdentifiers": {
    "LTV()": "62965d8e",
    "availableCredit(address)": "5886216f",
    "blockMerchant(address)": "f5917ebe",
    "creditBorrower(bytes32)": "7f492461",
    "creditPositions(bytes32)": "9226b72c",
    "deposit()": "d0e30db0",
    "flagMerchant(address)": "27c7c1c9",
    "liquidate(bytes32)": "0a71096e",
    "merchantBlocked(address)": "11a236b7",
    "merchantFlagCount(address)": "a2fe6e31",
    "owner()": "8da5cb5b",
    "pocketController()": "93461a91",
    "positions(address)": "55f57510",
    "repayInstallment(bytes32)": "82e43d11",
    "requestCredit(address,uint256,uint256,uint256,uint256)": "2fd0e9e5",
    "unblockMerchant(address)": "c086454e",
    "userHasFlagged(address,address)": "e4f70911"
  },
  "id": 37
}