{
    "abi": [
        {
            "type": "function",
            "name": "purchase",
            "inputs": [],
            "outputs": [],
            "stateMutability": "payable"
        },
        {
            "type": "event",
            "name": "Purchased",
            "inputs": [
                {
                    "name": "buyer",
                    "type": "address",
                    "indexed": false,
                    "internalType": "address"
                },
                {
                    "name": "amount",
                    "type": "uint256",
                    "indexed": false,
                    "internalType": "uint256"
                }
            ],
            "anonymous": false
        }
    ],
    "bytecode": {
        "object": "0x6080604052348015600e575f80fd5b5060978061001b5f395ff3fe608060405260043610601b575f3560e01c806364edfbf014601f575b5f80fd5b60256027565b005b604080513381523460208201527fa512fb2532ca8587f236380171326ebb69670e86a2ba0c4412a3fcca4c3ada9b910160405180910390a156fea26469706673582212200236f18d3c7279830608d91389590eff6638287d56b27e193f508b36bed9640864736f6c63430008180033",
        "linkReferences": {}
    },
    "methodIdentifiers": {
        "purchase()": "64edfbf0"
    },
    "id": 46
}