{
    "abi": [
        {
            "type": "receive",
            "stateMutability": "payable"
        },
        {
            "type": "function",
            "name": "purchase",
            "inputs": [],
            "outputs": [],
            "stateMutability": "payable"
        },
        {
            "type": "event",
            "name": "AttackAttempted",
            "inputs": [
                {
                    "name": "caller",
                    "type": "address",
                    "indexed": true,
                    "internalType": "address"
                },
                {
                    "name": "observedCallerBalance",
                    "type": "uint256",
                    "indexed": false,
                    "internalType": "uint256"
                },
                {
                    "name": "success",
                    "type": "bool",
                    "indexed": false,
                    "internalType": "bool"
                },
                {
                    "name": "returnData",
                    "type": "bytes",
                    "indexed": false,
                    "internalType": "bytes"
                }
            ],
            "anonymous": false
        }
    ],
    "bytecode": {
        "object": "0x608060405234801561000f575f80fd5b5061015f8061001d5f395ff3fe608060405260043610610020575f3560e01c806364edfbf01461002b575f80fd5b3661002757005b5f80fd5b610033610035565b005b604051338031915f91829184908381818185875af1925050503d805f8114610078576040519150601f19603f3d011682016040523d82523d5f602084013e61007d565b606091505b5091509150336001600160a01b03167f19bc7c5d08b2f6c02f347f63a65dba93a015969c0cdf3812ab47aa168dba97e38484846040516100bf939291906100cc565b60405180910390a2505050565b8381525f602084151560208401526060604084015283518060608501525f5b81811015610107578581018301518582016080015282016100eb565b505f608082860101526080601f19601f8301168501019250505094935050505056fea2646970667358221220861e41cb2bfe07696ff7792956058f0a6bef32e2511b797804ebf2c5f439011164736f6c63430008180033",
        "linkReferences": {}
    },
    "methodIdentifiers": {
        "purchase()": "64edfbf0"
    },
    "id": 47
}