{"abi":[{"type":"constructor","inputs":[],"stateMutability":"nonpayable"},{"type":"receive","stateMutability":"payable"},{"type":"function","name":"CLAIM_FEE","inputs":[],"outputs":[{"name":"","type":"uint256","internalType":"uint256"}],"stateMutability":"view"},{"type":"function","name":"allowance","inputs":[{"name":"owner","type":"address","internalType":"address"},{"name":"spender","type":"address","internalType":"address"}],"outputs":[{"name":"","type":"uint256","internalType":"uint256"}],"stateMutability":"view"},{"type":"function","name":"approve","inputs":[{"name":"spender","type":"address","internalType":"address"},{"name":"amount","type":"uint256","internalType":"uint256"}],"outputs":[{"name":"","type":"bool","internalType":"bool"}],"stateMutability":"nonpayable"},{"type":"function","name":"balanceOf","inputs":[{"name":"account","type":"address","internalType":"address"}],"outputs":[{"name":"","type":"uint256","internalType":"uint256"}],"stateMutability":"view"},{"type":"function","name":"claimAirdrop","inputs":[],"outputs":[],"stateMutability":"payable"},{"type":"function","name":"decimals","inputs":[],"outputs":[{"name":"","type":"uint8","internalType":"uint8"}],"stateMutability":"view"},{"type":"function","name":"decreaseAllowance","inputs":[{"name":"spender","type":"address","internalType":"address"},{"name":"subtractedValue","type":"uint256","internalType":"uint256"}],"outputs":[{"name":"","type":"bool","internalType":"bool"}],"stateMutability":"nonpayable"},{"type":"function","name":"increaseAllowance","inputs":[{"name":"spender","type":"address","internalType":"address"},{"name":"addedValue","type":"uint256","internalType":"uint256"}],"outputs":[{"name":"","type":"bool","internalType":"bool"}],"stateMutability":"nonpayable"},{"type":"function","name":"name","inputs":[],"outputs":[{"name":"","type":"string","internalType":"string"}],"stateMutability":"view"},{"type":"function","name":"owner","inputs":[],"outputs":[{"name":"","type":"address","internalType":"address"}],"stateMutability":"view"},{"type":"function","name":"symbol","inputs":[],"outputs":[{"name":"","type":"string","internalType":"string"}],"stateMutability":"view"},{"type":"function","name":"totalSupply","inputs":[],"outputs":[{"name":"","type":"uint256","internalType":"uint256"}],"stateMutability":"view"},{"type":"function","name":"transfer","inputs":[{"name":"to","type":"address","internalType":"address"},{"name":"amount","type":"uint256","internalType":"uint256"}],"outputs":[{"name":"","type":"bool","internalType":"bool"}],"stateMutability":"nonpayable"},{"type":"function","name":"transferFrom","inputs":[{"name":"from","type":"address","internalType":"address"},{"name":"to","type":"address","internalType":"address"},{"name":"amount","type":"uint256","internalType":"uint256"}],"outputs":[{"name":"","type":"bool","internalType":"bool"}],"stateMutability":"nonpayable"},{"type":"function","name":"withdrawFees","inputs":[],"outputs":[],"stateMutability":"nonpayable"},{"type":"event","name":"Approval","inputs":[{"name":"owner","type":"address","indexed":true,"internalType":"address"},{"name":"spender","type":"address","indexed":true,"internalType":"address"},{"name":"value","type":"uint256","indexed":false,"internalType":"uint256"}],"anonymous":false},{"type":"event","name":"Transfer","inputs":[{"name":"from","type":"address","indexed":true,"internalType":"address"},{"name":"to","type":"address","indexed":true,"internalType":"address"},{"name":"value","type":"uint256","indexed":false,"internalType":"uint256"}],"anonymous":false},{"type":"error","name":"FeeTooLow","inputs":[]},{"type":"error","name":"NotOwner","inputs":[]},{"type":"error","name":"TransfersDisabled","inputs":[]}],"bytecode":{"object":"0x60a060405234801562000010575f80fd5b506040518060400160405280601381526020017f5068616e746f6d204665652041697264726f7000000000000000000000000000815250604051806040016040528060078152602001665048414e544f4d60c81b815250816003908162000078919062000263565b50600462000087828262000263565b5050336080819052620000a6915069d3c21bcecceda1000000620000ac565b62000351565b6001600160a01b038216620001075760405162461bcd60e51b815260206004820152601f60248201527f45524332303a206d696e7420746f20746865207a65726f206164647265737300604482015260640160405180910390fd5b620001145f83836200017d565b8060025f8282546200012791906200032b565b90915550506001600160a01b0382165f81815260208181526040808320805486019055518481527fddf252ad1be2c89b69c2b068fc378daa952ba7f163c4a11628f55a4df523b3ef910160405180910390a35050565b6001600160a01b03831615806200019b57506001600160a01b038216155b15620001a657505050565b604051638574adcf60e01b815260040160405180910390fd5b505050565b634e487b7160e01b5f52604160045260245ffd5b600181811c90821680620001ed57607f821691505b6020821081036200020c57634e487b7160e01b5f52602260045260245ffd5b50919050565b601f821115620001bf575f81815260208120601f850160051c810160208610156200023a5750805b601f850160051c820191505b818110156200025b5782815560010162000246565b505050505050565b81516001600160401b038111156200027f576200027f620001c4565b6200029781620002908454620001d8565b8462000212565b602080601f831160018114620002cd575f8415620002b55750858301515b5f19600386901b1c1916600185901b1785556200025b565b5f85815260208120601f198616915b82811015620002fd57888601518255948401946001909101908401620002dc565b50858210156200031b57878501515f19600388901b60f8161c191681555b5050505050600190811b01905550565b808201808211156200034b57634e487b7160e01b5f52601160045260245ffd5b92915050565b608051610bcf620003785f395f8181610225015281816103e201526104230152610bcf5ff3fe6080604052600436106100e7575f3560e01c80635b88349d11610087578063a457c2d711610057578063a457c2d714610273578063a9059cbb14610292578063dd62ed3e146102b1578063e41e4fc6146102d0575f80fd5b80635b88349d146101d857806370a08231146101e05780638da5cb5b1461021457806395d89b411461025f575f80fd5b806323b872dd116100c257806323b872dd14610169578063313ce5671461018857806339509351146101a3578063476343ee146101c2575f80fd5b806306fdde03146100f2578063095ea7b31461011c57806318160ddd1461014b575f80fd5b366100ee57005b5f80fd5b3480156100fd575f80fd5b506101066102ea565b6040516101139190610a2a565b60405180910390f35b348015610127575f80fd5b5061013b610136366004610a90565b61037a565b6040519015158152602001610113565b348015610156575f80fd5b506002545b604051908152602001610113565b348015610174575f80fd5b5061013b610183366004610ab8565b610393565b348015610193575f80fd5b5060405160128152602001610113565b3480156101ae575f80fd5b5061013b6101bd366004610a90565b6103b6565b3480156101cd575f80fd5b506101d66103d7565b005b6101d66104dd565b3480156101eb575f80fd5b5061015b6101fa366004610af1565b6001600160a01b03165f9081526020819052604090205490565b34801561021f575f80fd5b506102477f000000000000000000000000000000000000000000000000000000000000000081565b6040516001600160a01b039091168152602001610113565b34801561026a575f80fd5b5061010661051a565b34801561027e575f80fd5b5061013b61028d366004610a90565b610529565b34801561029d575f80fd5b5061013b6102ac366004610a90565b6105a3565b3480156102bc575f80fd5b5061015b6102cb366004610b11565b6105b0565b3480156102db575f80fd5b5061015b662386f26fc1000081565b6060600380546102f990610b42565b80601f016020809104026020016040519081016040528092919081815260200182805461032590610b42565b80156103705780601f1061034757610100808354040283529160200191610370565b820191905f5260205f20905b81548152906001019060200180831161035357829003601f168201915b5050505050905090565b5f336103878185856105da565b60019150505b92915050565b5f336103a08582856106fd565b6103ab858585610775565b506001949350505050565b5f336103878185856103c883836105b0565b6103d29190610b7a565b6105da565b336001600160a01b037f00000000000000000000000000000000000000000000000000000000000000001614610420576040516330cd747160e01b815260040160405180910390fd5b5f7f00000000000000000000000000000000000000000000000000000000000000006001600160a01b0316476040515f6040518083038185875af1925050503d805f8114610489576040519150601f19603f3d011682016040523d82523d5f602084013e61048e565b606091505b50509050806104da5760405162461bcd60e51b8152602060048201526013602482015272115512081d1c985b9cd9995c8819985a5b1959606a1b60448201526064015b60405180910390fd5b50565b662386f26fc100003410156105055760405163732f941360e01b815260040160405180910390fd5b61051833683635c9adc5dea00000610922565b565b6060600480546102f990610b42565b5f338161053682866105b0565b9050838110156105965760405162461bcd60e51b815260206004820152602560248201527f45524332303a2064656372656173656420616c6c6f77616e63652062656c6f77604482015264207a65726f60d81b60648201526084016104d1565b6103ab82868684036105da565b5f33610387818585610775565b6001600160a01b039182165f90815260016020908152604080832093909416825291909152205490565b6001600160a01b03831661063c5760405162461bcd60e51b8152602060048201526024808201527f45524332303a20617070726f76652066726f6d20746865207a65726f206164646044820152637265737360e01b60648201526084016104d1565b6001600160a01b03821661069d5760405162461bcd60e51b815260206004820152602260248201527f45524332303a20617070726f766520746f20746865207a65726f206164647265604482015261737360f01b60648201526084016104d1565b6001600160a01b038381165f8181526001602090815260408083209487168084529482529182902085905590518481527f8c5be1e5ebec7d5bd14f71427d1e84f3dd0314c0f7b2291e5b200ac8c7c3b925910160405180910390a3505050565b5f61070884846105b0565b90505f19811461076f57818110156107625760405162461bcd60e51b815260206004820152601d60248201527f45524332303a20696e73756666696369656e7420616c6c6f77616e636500000060448201526064016104d1565b61076f84848484036105da565b50505050565b6001600160a01b0383166107d95760405162461bcd60e51b815260206004820152602560248201527f45524332303a207472616e736665722066726f6d20746865207a65726f206164604482015264647265737360d81b60648201526084016104d1565b6001600160a01b03821661083b5760405162461bcd60e51b815260206004820152602360248201527f45524332303a207472616e7366657220746f20746865207a65726f206164647260448201526265737360e81b60648201526084016104d1565b6108468383836109ea565b6001600160a01b0383165f90815260208190526040902054818110156108bd5760405162461bcd60e51b815260206004820152602660248201527f45524332303a207472616e7366657220616d6f756e7420657863656564732062604482015265616c616e636560d01b60648201526084016104d1565b6001600160a01b038481165f81815260208181526040808320878703905593871680835291849020805487019055925185815290927fddf252ad1be2c89b69c2b068fc378daa952ba7f163c4a11628f55a4df523b3ef910160405180910390a361076f565b6001600160a01b0382166109785760405162461bcd60e51b815260206004820152601f60248201527f45524332303a206d696e7420746f20746865207a65726f20616464726573730060448201526064016104d1565b6109835f83836109ea565b8060025f8282546109949190610b7a565b90915550506001600160a01b0382165f81815260208181526040808320805486019055518481527fddf252ad1be2c89b69c2b068fc378daa952ba7f163c4a11628f55a4df523b3ef910160405180910390a35050565b6001600160a01b0383161580610a0757506001600160a01b038216155b15610a1157505050565b604051638574adcf60e01b815260040160405180910390fd5b5f6020808352835180828501525f5b81811015610a5557858101830151858201604001528201610a39565b505f604082860101526040601f19601f8301168501019250505092915050565b80356001600160a01b0381168114610a8b575f80fd5b919050565b5f8060408385031215610aa1575f80fd5b610aaa83610a75565b946020939093013593505050565b5f805f60608486031215610aca575f80fd5b610ad384610a75565b9250610ae160208501610a75565b9150604084013590509250925092565b5f60208284031215610b01575f80fd5b610b0a82610a75565b9392505050565b5f8060408385031215610b22575f80fd5b610b2b83610a75565b9150610b3960208401610a75565b90509250929050565b600181811c90821680610b5657607f821691505b602082108103610b7457634e487b7160e01b5f52602260045260245ffd5b50919050565b8082018082111561038d57634e487b7160e01b5f52601160045260245ffdfea264697066735822122084d2fdb92a41973a046afa1ef41cad24f627ab62ef77f284e4fb268702cb853c64736f6c63430008140033","linkReferences":{}},"methodIdentifiers":{"CLAIM_FEE()":"e41e4fc6","allowance(address,address)":"dd62ed3e","approve(address,uint256)":"095ea7b3","balanceOf(address)":"70a08231","claimAirdrop()":"5b88349d","decimals()":"313ce567","decreaseAllowance(address,uint256)":"a457c2d7","increaseAllowance(address,uint256)":"39509351","name()":"06fdde03","owner()":"8da5cb5b","symbol()":"95d89b41","totalSupply()":"18160ddd","transfer(address,uint256)":"a9059cbb","transferFrom(address,address,uint256)":"23b872dd","withdrawFees()":"476343ee"},"id":6}