{
    "abi": [
        {
            "type": "constructor",
            "inputs": [
                {
                    "name": "_controller",
                    "type": "address",
                    "internalType": "address"
                },
                {
                    "name": "_owner",
                    "type": "address",
                    "internalType": "address"
                }
            ],
            "stateMutability": "nonpayable"
        },
        {
            "type": "receive",
            "stateMutability": "payable"
        },
        {
            "type": "function",
            "name": "burn",
            "inputs": [
                {
                    "name": "nonce",
                    "type": "uint256",
                    "internalType": "uint256"
                },
                {
                    "name": "expiry",
                    "type": "uint256",
                    "internalType": "uint256"
                },
                {
                    "name": "signature",
                    "type": "bytes",
                    "internalType": "bytes"
                }
            ],
            "outputs": [],
            "stateMutability": "nonpayable"
        },
        {
            "type": "function",
            "name": "burned",
            "inputs": [],
            "outputs": [
                {
                    "name": "",
                    "type": "bool",
                    "internalType": "bool"
                }
            ],
            "stateMutability": "view"
        },
        {
            "type": "function",
            "name": "controller",
            "inputs": [],
            "outputs": [
                {
                    "name": "",
                    "type": "address",
                    "internalType": "address"
                }
            ],
            "stateMutability": "view"
        },
        {
            "type": "function",
            "name": "eip712Domain",
            "inputs": [],
            "outputs": [
                {
                    "name": "fields",
                    "type": "bytes1",
                    "internalType": "bytes1"
                },
                {
                    "name": "name",
                    "type": "string",
                    "internalType": "string"
                },
                {
                    "name": "version",
                    "type": "string",
                    "internalType": "string"
                },
                {
                    "name": "chainId",
                    "type": "uint256",
                    "internalType": "uint256"
                },
                {
                    "name": "verifyingContract",
                    "type": "address",
                    "internalType": "address"
                },
                {
                    "name": "salt",
                    "type": "bytes32",
                    "internalType": "bytes32"
                },
                {
                    "name": "extensions",
                    "type": "uint256[]",
                    "internalType": "uint256[]"
                }
            ],
            "stateMutability": "view"
        },
        {
            "type": "function",
            "name": "exec",
            "inputs": [
                {
                    "name": "target",
                    "type": "address",
                    "internalType": "address"
                },
                {
                    "name": "data",
                    "type": "bytes",
                    "internalType": "bytes"
                },
                {
                    "name": "nonce",
                    "type": "uint256",
                    "internalType": "uint256"
                },
                {
                    "name": "expiry",
                    "type": "uint256",
                    "internalType": "uint256"
                },
                {
                    "name": "signature",
                    "type": "bytes",
                    "internalType": "bytes"
                }
            ],
            "outputs": [],
            "stateMutability": "nonpayable"
        },
        {
            "type": "function",
            "name": "owner",
            "inputs": [],
            "outputs": [
                {
                    "name": "",
                    "type": "address",
                    "internalType": "address"
                }
            ],
            "stateMutability": "view"
        },
        {
            "type": "function",
            "name": "sweepERC20",
            "inputs": [
                {
                    "name": "token",
                    "type": "address",
                    "internalType": "address"
                },
                {
                    "name": "to",
                    "type": "address",
                    "internalType": "address"
                },
                {
                    "name": "amount",
                    "type": "uint256",
                    "internalType": "uint256"
                }
            ],
            "outputs": [],
            "stateMutability": "nonpayable"
        },
        {
            "type": "function",
            "name": "used",
            "inputs": [],
            "outputs": [
                {
                    "name": "",
                    "type": "bool",
                    "internalType": "bool"
                }
            ],
            "stateMutability": "view"
        },
        {
            "type": "function",
            "name": "usedNonces",
            "inputs": [
                {
                    "name": "",
                    "type": "uint256",
                    "internalType": "uint256"
                }
            ],
            "outputs": [
                {
                    "name": "",
                    "type": "bool",
                    "internalType": "bool"
                }
            ],
            "stateMutability": "view"
        },
        {
            "type": "event",
            "name": "EIP712DomainChanged",
            "inputs": [],
            "anonymous": false
        },
        {
            "type": "error",
            "name": "ExecutionFailed",
            "inputs": []
        },
        {
            "type": "error",
            "name": "InvalidShortString",
            "inputs": []
        },
        {
            "type": "error",
            "name": "InvalidSigner",
            "inputs": []
        },
        {
            "type": "error",
            "name": "NonceUsed",
            "inputs": []
        },
        {
            "type": "error",
            "name": "NotController",
            "inputs": []
        },
        {
            "type": "error",
            "name": "PocketAlreadyUsed",
            "inputs": []
        },
        {
            "type": "error",
            "name": "PocketBurned",
            "inputs": []
        },
        {
            "type": "error",
            "name": "SignatureExpired",
            "inputs": []
        },
        {
            "type": "error",
            "name": "StringTooLong",
            "inputs": [
                {
                    "name": "str",
                    "type": "string",
                    "internalType": "string"
                }
            ]
        }
    ],
    "bytecode": {
        "object": "0x6101a060405234801562000011575f80fd5b5060405162001733380380620017338339810160408190526200003491620001db565b604080518082018252600b81526a15d85c9908141bd8dad95d60aa1b602080830191909152825180840190935260018352603160f81b90830152906200007b825f6200013c565b610120526200008c8160016200013c565b61014052815160208084019190912060e052815190820120610100524660a0526200011960e05161010051604080517f8b73c3c69bb8fe3d512ecc4cf759cc79239f7b179b0ffacaa9a75d522b39400f60208201529081019290925260608201524660808201523060a08201525f9060c00160405160208183030381529060405280519060200120905090565b60805250503060c0526001600160a01b03918216610160521661018052620003ea565b5f6020835110156200015b57620001538362000174565b90506200016e565b81620001688482620002b1565b5060ff90505b92915050565b5f80829050601f81511115620001aa578260405163305a27a960e01b8152600401620001a1919062000379565b60405180910390fd5b8051620001b782620003c6565b179392505050565b80516001600160a01b0381168114620001d6575f80fd5b919050565b5f8060408385031215620001ed575f80fd5b620001f883620001bf565b91506200020860208401620001bf565b90509250929050565b634e487b7160e01b5f52604160045260245ffd5b600181811c908216806200023a57607f821691505b6020821081036200025957634e487b7160e01b5f52602260045260245ffd5b50919050565b601f821115620002ac575f81815260208120601f850160051c81016020861015620002875750805b601f850160051c820191505b81811015620002a85782815560010162000293565b5050505b505050565b81516001600160401b03811115620002cd57620002cd62000211565b620002e581620002de845462000225565b846200025f565b602080601f8311600181146200031b575f8415620003035750858301515b5f19600386901b1c1916600185901b178555620002a8565b5f85815260208120601f198616915b828110156200034b578886015182559484019460019091019084016200032a565b50858210156200036957878501515f19600388901b60f8161c191681555b5050505050600190811b01905550565b5f6020808352835180828501525f5b81811015620003a65785810183015185820160400152820162000388565b505f604082860101526040601f19601f8301168501019250505092915050565b8051602080830151919081101562000259575f1960209190910360031b1b16919050565b60805160a05160c05160e05161010051610120516101405161016051610180516112b96200047a5f395f81816101a30152818161046001526106d001525f81816101ee0152818161021b015281816102a60152818161056a015261073901525f61079201525f61076801525f610ae101525f610ab901525f610a1401525f610a3e01525f610a6801526112b95ff3fe608060405260043610610087575f3560e01c80637c44cc2f116100575780637c44cc2f1461012d57806380a5a3711461014c57806384b0196e1461016b5780638da5cb5b14610192578063f77c4791146101dd575f80fd5b8063503690d11461009257806363898e2b146100b35780636717e41c146100e157806373f425611461010f575f80fd5b3661008e57005b5f80fd5b34801561009d575f80fd5b506100b16100ac366004610f8a565b610210565b005b3480156100be575f80fd5b506002546100cc9060ff1681565b60405190151581526020015b60405180910390f35b3480156100ec575f80fd5b506100cc6100fb366004610fc3565b60036020525f908152604090205460ff1681565b34801561011a575f80fd5b506002546100cc90610100900460ff1681565b348015610138575f80fd5b506100b1610147366004611018565b61029b565b348015610157575f80fd5b506100b16101663660046110a5565b61055f565b348015610176575f80fd5b5061017f61075b565b6040516100d89796959493929190611141565b34801561019d575f80fd5b506101c57f000000000000000000000000000000000000000000000000000000000000000081565b6040516001600160a01b0390911681526020016100d8565b3480156101e8575f80fd5b506101c57f000000000000000000000000000000000000000000000000000000000000000081565b336001600160a01b037f00000000000000000000000000000000000000000000000000000000000000001614610259576040516323019e6760e01b815260040160405180910390fd5b600254610100900460ff161561028257604051636a0f72e360e01b815260040160405180910390fd5b6102966001600160a01b03841683836107e1565b505050565b336001600160a01b037f000000000000000000000000000000000000000000000000000000000000000016146102e4576040516323019e6760e01b815260040160405180910390fd5b600254610100900460ff161561030d57604051636a0f72e360e01b815260040160405180910390fd5b60025460ff1615610331576040516333f7a52360e01b815260040160405180910390fd5b5f8481526003602052604090205460ff161561036057604051631f6d5aef60e01b815260040160405180910390fd5b8242111561038157604051630819bdcd60e01b815260040160405180910390fd5b5f7f7c1b8eaf7080f83dcd8c2f204378b964f83b88943bbaf768da5f952d51475d08308989896040516103b59291906111d5565b6040805191829003822060208301959095526001600160a01b039384169082015291166060820152608081019190915260a0810186905260c0810185905260e0016040516020818303038152906040528051906020012090505f61041882610833565b90505f61045c85858080601f0160208091040260200160405190810160405280939291908181526020018383808284375f9201919091525086939250506108659050565b90507f00000000000000000000000000000000000000000000000000000000000000006001600160a01b0316816001600160a01b0316146104b057604051632057875960e21b815260040160405180910390fd5b5f878152600360205260408082208054600160ff199182168117909255600280549091169091179055516001600160a01b038c16906104f2908c908c906111d5565b5f604051808303815f865af19150503d805f811461052b576040519150601f19603f3d011682016040523d82523d5f602084013e610530565b606091505b505090508061055257604051632b3f6d1160e21b815260040160405180910390fd5b5050505050505050505050565b336001600160a01b037f000000000000000000000000000000000000000000000000000000000000000016146105a8576040516323019e6760e01b815260040160405180910390fd5b600254610100900460ff16156105d157604051636a0f72e360e01b815260040160405180910390fd5b5f8481526003602052604090205460ff161561060057604051631f6d5aef60e01b815260040160405180910390fd5b8242111561062157604051630819bdcd60e01b815260040160405180910390fd5b604080517f73082a753ea725f34ee48b0e8ba44fc9617ee099a208f5e080762c2aa4c6671f6020820152309181019190915260608101859052608081018490525f9060a0016040516020818303038152906040528051906020012090505f61068882610833565b90505f6106cc85858080601f0160208091040260200160405190810160405280939291908181526020018383808284375f9201919091525086939250506108659050565b90507f00000000000000000000000000000000000000000000000000000000000000006001600160a01b0316816001600160a01b03161461072057604051632057875960e21b815260040160405180910390fd5b6002805461ff0019166101001790556001600160a01b037f000000000000000000000000000000000000000000000000000000000000000016ff5b5f6060808280808361078d7f000000000000000000000000000000000000000000000000000000000000000083610887565b6107b87f00000000000000000000000000000000000000000000000000000000000000006001610887565b604080515f80825260208201909252600f60f81b9b939a50919850469750309650945092509050565b604080516001600160a01b038416602482015260448082018490528251808303909101815260649091019091526020810180516001600160e01b031663a9059cbb60e01b179052610296908490610930565b5f61085f61083f610a08565b8360405161190160f01b8152600281019290925260228201526042902090565b92915050565b5f805f6108728585610b36565b9150915061087f81610b78565b509392505050565b606060ff83146108a15761089a83610cc4565b905061085f565b8180546108ad906111e4565b80601f01602080910402602001604051908101604052809291908181526020018280546108d9906111e4565b80156109245780601f106108fb57610100808354040283529160200191610924565b820191905f5260205f20905b81548152906001019060200180831161090757829003601f168201915b5050505050905061085f565b5f610984826040518060400160405280602081526020017f5361666545524332303a206c6f772d6c6576656c2063616c6c206661696c6564815250856001600160a01b0316610d019092919063ffffffff16565b905080515f14806109a45750808060200190518101906109a4919061121c565b6102965760405162461bcd60e51b815260206004820152602a60248201527f5361666545524332303a204552433230206f7065726174696f6e20646964206e6044820152691bdd081cdd58d8d9595960b21b60648201526084015b60405180910390fd5b5f306001600160a01b037f000000000000000000000000000000000000000000000000000000000000000016148015610a6057507f000000000000000000000000000000000000000000000000000000000000000046145b15610a8a57507f000000000000000000000000000000000000000000000000000000000000000090565b610b31604080517f8b73c3c69bb8fe3d512ecc4cf759cc79239f7b179b0ffacaa9a75d522b39400f60208201527f0000000000000000000000000000000000000000000000000000000000000000918101919091527f000000000000000000000000000000000000000000000000000000000000000060608201524660808201523060a08201525f9060c00160405160208183030381529060405280519060200120905090565b905090565b5f808251604103610b6a576020830151604084015160608501515f1a610b5e87828585610d17565b94509450505050610b71565b505f905060025b9250929050565b5f816004811115610b8b57610b8b611242565b03610b935750565b6001816004811115610ba757610ba7611242565b03610bf45760405162461bcd60e51b815260206004820152601860248201527f45434453413a20696e76616c6964207369676e6174757265000000000000000060448201526064016109ff565b6002816004811115610c0857610c08611242565b03610c555760405162461bcd60e51b815260206004820152601f60248201527f45434453413a20696e76616c6964207369676e6174757265206c656e6774680060448201526064016109ff565b6003816004811115610c6957610c69611242565b03610cc15760405162461bcd60e51b815260206004820152602260248201527f45434453413a20696e76616c6964207369676e6174757265202773272076616c604482015261756560f01b60648201526084016109ff565b50565b60605f610cd083610dd4565b6040805160208082528183019092529192505f91906020820181803683375050509182525060208101929092525090565b6060610d0f84845f85610dfb565b949350505050565b5f807f7fffffffffffffffffffffffffffffff5d576e7357a4501ddfe92f46681b20a0831115610d4c57505f90506003610dcb565b604080515f8082526020820180845289905260ff881692820192909252606081018690526080810185905260019060a0016020604051602081039080840390855afa158015610d9d573d5f803e3d5ffd5b5050604051601f1901519150506001600160a01b038116610dc5575f60019250925050610dcb565b91505f90505b94509492505050565b5f60ff8216601f81111561085f57604051632cd44ac360e21b815260040160405180910390fd5b606082471015610e5c5760405162461bcd60e51b815260206004820152602660248201527f416464726573733a20696e73756666696369656e742062616c616e636520666f6044820152651c8818d85b1b60d21b60648201526084016109ff565b5f80866001600160a01b03168587604051610e779190611256565b5f6040518083038185875af1925050503d805f8114610eb1576040519150601f19603f3d011682016040523d82523d5f602084013e610eb6565b606091505b5091509150610ec787838387610ed2565b979650505050505050565b60608315610f405782515f03610f39576001600160a01b0385163b610f395760405162461bcd60e51b815260206004820152601d60248201527f416464726573733a2063616c6c20746f206e6f6e2d636f6e747261637400000060448201526064016109ff565b5081610d0f565b610d0f8383815115610f555781518083602001fd5b8060405162461bcd60e51b81526004016109ff9190611271565b80356001600160a01b0381168114610f85575f80fd5b919050565b5f805f60608486031215610f9c575f80fd5b610fa584610f6f565b9250610fb360208501610f6f565b9150604084013590509250925092565b5f60208284031215610fd3575f80fd5b5035919050565b5f8083601f840112610fea575f80fd5b50813567ffffffffffffffff811115611001575f80fd5b602083019150836020828501011115610b71575f80fd5b5f805f805f805f60a0888a03121561102e575f80fd5b61103788610f6f565b9650602088013567ffffffffffffffff80821115611053575f80fd5b61105f8b838c01610fda565b909850965060408a0135955060608a0135945060808a0135915080821115611085575f80fd5b506110928a828b01610fda565b989b979a50959850939692959293505050565b5f805f80606085870312156110b8575f80fd5b8435935060208501359250604085013567ffffffffffffffff8111156110dc575f80fd5b6110e887828801610fda565b95989497509550505050565b5f5b8381101561110e5781810151838201526020016110f6565b50505f910152565b5f815180845261112d8160208601602086016110f4565b601f01601f19169290920160200192915050565b60ff60f81b881681525f602060e08184015261116060e084018a611116565b8381036040850152611172818a611116565b606085018990526001600160a01b038816608086015260a0850187905284810360c086015285518082528387019250908301905f5b818110156111c3578351835292840192918401916001016111a7565b50909c9b505050505050505050505050565b818382375f9101908152919050565b600181811c908216806111f857607f821691505b60208210810361121657634e487b7160e01b5f52602260045260245ffd5b50919050565b5f6020828403121561122c575f80fd5b8151801515811461123b575f80fd5b9392505050565b634e487b7160e01b5f52602160045260245ffd5b5f82516112678184602087016110f4565b9190910192915050565b602081525f61123b602083018461111656fea2646970667358221220731311601d9828e9fcc2db9aaff7f4e5537de16d6704427127573bc4e63b9d0264736f6c63430008140033",
        "linkReferences": {}
    },
    "methodIdentifiers": {
        "burn(uint256,uint256,bytes)": "80a5a371",
        "burned()": "73f42561",
        "controller()": "f77c4791",
        "eip712Domain()": "84b0196e",
        "exec(address,bytes,uint256,uint256,bytes)": "7c44cc2f",
        "owner()": "8da5cb5b",
        "sweepERC20(address,address,uint256)": "503690d1",
        "used()": "63898e2b",
        "usedNonces(uint256)": "6717e41c"
    },
    "id": 31
}