{
    "abi": [
        {
            "type": "constructor",
            "inputs": [
                {
                    "name": "_controller",
                    "type": "address",
                    "internalType": "address"
                },
                {
                    "name": "_owner",
                    "type": "address",
                    "internalType": "address"
                }
            ],
            "stateMutability": "nonpayable"
        },
        {
            "type": "receive",
            "stateMutability": "payable"
        },
        {
            "type": "function",
            "name": "burn",
            "inputs": [
                {
                    "name": "nonce",
                    "type": "uint256",
                    "internalType": "uint256"
                },
                {
                    "name": "expiry",
                    "type": "uint256",
                    "internalType": "uint256"
                },
                {
                    "name": "signature",
                    "type": "bytes",
                    "internalType": "bytes"
                }
            ],
            "outputs": [],
            "stateMutability": "nonpayable"
        },
        {
            "type": "function",
            "name": "burned",
            "inputs": [],
            "outputs": [
                {
                    "name": "",
                    "type": "bool",
                    "internalType": "bool"
                }
            ],
            "stateMutability": "view"
        },
        {
            "type": "function",
            "name": "controller",
            "inputs": [],
            "outputs": [
                {
                    "name": "",
                    "type": "address",
                    "internalType": "address"
                }
            ],
            "stateMutability": "view"
        },
        {
            "type": "function",
            "name": "eip712Domain",
            "inputs": [],
            "outputs": [
                {
                    "name": "fields",
                    "type": "bytes1",
                    "internalType": "bytes1"
                },
                {
                    "name": "name",
                    "type": "string",
                    "internalType": "string"
                },
                {
                    "name": "version",
                    "type": "string",
                    "internalType": "string"
                },
                {
                    "name": "chainId",
                    "type": "uint256",
                    "internalType": "uint256"
                },
                {
                    "name": "verifyingContract",
                    "type": "address",
                    "internalType": "address"
                },
                {
                    "name": "salt",
                    "type": "bytes32",
                    "internalType": "bytes32"
                },
                {
                    "name": "extensions",
                    "type": "uint256[]",
                    "internalType": "uint256[]"
                }
            ],
            "stateMutability": "view"
        },
        {
            "type": "function",
            "name": "exec",
            "inputs": [
                {
                    "name": "target",
                    "type": "address",
                    "internalType": "address"
                },
                {
                    "name": "data",
                    "type": "bytes",
                    "internalType": "bytes"
                },
                {
                    "name": "nonce",
                    "type": "uint256",
                    "internalType": "uint256"
                },
                {
                    "name": "expiry",
                    "type": "uint256",
                    "internalType": "uint256"
                },
                {
                    "name": "signature",
                    "type": "bytes",
                    "internalType": "bytes"
                }
            ],
            "outputs": [],
            "stateMutability": "nonpayable"
        },
        {
            "type": "function",
            "name": "owner",
            "inputs": [],
            "outputs": [
                {
                    "name": "",
                    "type": "address",
                    "internalType": "address"
                }
            ],
            "stateMutability": "view"
        },
        {
            "type": "function",
            "name": "sweepERC20",
            "inputs": [
                {
                    "name": "token",
                    "type": "address",
                    "internalType": "address"
                },
                {
                    "name": "to",
                    "type": "address",
                    "internalType": "address"
                },
                {
                    "name": "amount",
                    "type": "uint256",
                    "internalType": "uint256"
                }
            ],
            "outputs": [],
            "stateMutability": "nonpayable"
        },
        {
            "type": "function",
            "name": "used",
            "inputs": [],
            "outputs": [
                {
                    "name": "",
                    "type": "bool",
                    "internalType": "bool"
                }
            ],
            "stateMutability": "view"
        },
        {
            "type": "function",
            "name": "usedNonces",
            "inputs": [
                {
                    "name": "",
                    "type": "uint256",
                    "internalType": "uint256"
                }
            ],
            "outputs": [
                {
                    "name": "",
                    "type": "bool",
                    "internalType": "bool"
                }
            ],
            "stateMutability": "view"
        },
        {
            "type": "event",
            "name": "EIP712DomainChanged",
            "inputs": [],
            "anonymous": false
        },
        {
            "type": "error",
            "name": "ECDSAInvalidSignature",
            "inputs": []
        },
        {
            "type": "error",
            "name": "ECDSAInvalidSignatureLength",
            "inputs": [
                {
                    "name": "length",
                    "type": "uint256",
                    "internalType": "uint256"
                }
            ]
        },
        {
            "type": "error",
            "name": "ECDSAInvalidSignatureS",
            "inputs": [
                {
                    "name": "s",
                    "type": "bytes32",
                    "internalType": "bytes32"
                }
            ]
        },
        {
            "type": "error",
            "name": "ExecutionFailed",
            "inputs": []
        },
        {
            "type": "error",
            "name": "InvalidShortString",
            "inputs": []
        },
        {
            "type": "error",
            "name": "InvalidSigner",
            "inputs": []
        },
        {
            "type": "error",
            "name": "NonceUsed",
            "inputs": []
        },
        {
            "type": "error",
            "name": "NotController",
            "inputs": []
        },
        {
            "type": "error",
            "name": "PocketAlreadyUsed",
            "inputs": []
        },
        {
            "type": "error",
            "name": "PocketBurned",
            "inputs": []
        },
        {
            "type": "error",
            "name": "SafeERC20FailedOperation",
            "inputs": [
                {
                    "name": "token",
                    "type": "address",
                    "internalType": "address"
                }
            ]
        },
        {
            "type": "error",
            "name": "SignatureExpired",
            "inputs": []
        },
        {
            "type": "error",
            "name": "StringTooLong",
            "inputs": [
                {
                    "name": "str",
                    "type": "string",
                    "internalType": "string"
                }
            ]
        }
    ],
    "bytecode": {
        "object": "0x6101a060405234801562000011575f80fd5b5060405162001468380380620014688339810160408190526200003491620001db565b604080518082018252600b81526a15d85c9908141bd8dad95d60aa1b602080830191909152825180840190935260018352603160f81b90830152906200007b825f6200013c565b610120526200008c8160016200013c565b61014052815160208084019190912060e052815190820120610100524660a0526200011960e05161010051604080517f8b73c3c69bb8fe3d512ecc4cf759cc79239f7b179b0ffacaa9a75d522b39400f60208201529081019290925260608201524660808201523060a08201525f9060c00160405160208183030381529060405280519060200120905090565b60805250503060c0526001600160a01b03918216610160521661018052620003ed565b5f6020835110156200015b57620001538362000174565b90506200016e565b81620001688482620002af565b5060ff90505b92915050565b5f80829050601f81511115620001aa578260405163305a27a960e01b8152600401620001a191906200037b565b60405180910390fd5b8051620001b782620003c9565b179392505050565b80516001600160a01b0381168114620001d6575f80fd5b919050565b5f8060408385031215620001ed575f80fd5b620001f883620001bf565b91506200020860208401620001bf565b90509250929050565b634e487b7160e01b5f52604160045260245ffd5b600181811c908216806200023a57607f821691505b6020821081036200025957634e487b7160e01b5f52602260045260245ffd5b50919050565b601f821115620002aa57805f5260205f20601f840160051c81016020851015620002865750805b601f840160051c820191505b81811015620002a7575f815560010162000292565b50505b505050565b81516001600160401b03811115620002cb57620002cb62000211565b620002e381620002dc845462000225565b846200025f565b602080601f83116001811462000319575f8415620003015750858301515b5f19600386901b1c1916600185901b17855562000373565b5f85815260208120601f198616915b82811015620003495788860151825594840194600190910190840162000328565b50858210156200036757878501515f19600388901b60f8161c191681555b505060018460011b0185555b505050505050565b5f602080835283518060208501525f5b81811015620003a9578581018301518582016040015282016200038b565b505f604082860101526040601f19601f8301168501019250505092915050565b8051602080830151919081101562000259575f1960209190910360031b1b16919050565b60805160a05160c05160e0516101005161012051610140516101605161018051610feb6200047d5f395f81816101a30152818161046001526106d001525f81816101ee0152818161021b015281816102a60152818161056a015261073901525f61086901525f61083801525f6109ca01525f6109a201525f6108fd01525f61092701525f6109510152610feb5ff3fe608060405260043610610087575f3560e01c80637c44cc2f116100575780637c44cc2f1461012d57806380a5a3711461014c57806384b0196e1461016b5780638da5cb5b14610192578063f77c4791146101dd575f80fd5b8063503690d11461009257806363898e2b146100b35780636717e41c146100e157806373f425611461010f575f80fd5b3661008e57005b5f80fd5b34801561009d575f80fd5b506100b16100ac366004610d0f565b610210565b005b3480156100be575f80fd5b506002546100cc9060ff1681565b60405190151581526020015b60405180910390f35b3480156100ec575f80fd5b506100cc6100fb366004610d48565b60036020525f908152604090205460ff1681565b34801561011a575f80fd5b506002546100cc90610100900460ff1681565b348015610138575f80fd5b506100b1610147366004610da4565b61029b565b348015610157575f80fd5b506100b1610166366004610e31565b61055f565b348015610176575f80fd5b5061017f61075b565b6040516100d89796959493929190610ec3565b34801561019d575f80fd5b506101c57f000000000000000000000000000000000000000000000000000000000000000081565b6040516001600160a01b0390911681526020016100d8565b3480156101e8575f80fd5b506101c57f000000000000000000000000000000000000000000000000000000000000000081565b336001600160a01b037f00000000000000000000000000000000000000000000000000000000000000001614610259576040516323019e6760e01b815260040160405180910390fd5b600254610100900460ff161561028257604051636a0f72e360e01b815260040160405180910390fd5b6102966001600160a01b038416838361079d565b505050565b336001600160a01b037f000000000000000000000000000000000000000000000000000000000000000016146102e4576040516323019e6760e01b815260040160405180910390fd5b600254610100900460ff161561030d57604051636a0f72e360e01b815260040160405180910390fd5b60025460ff1615610331576040516333f7a52360e01b815260040160405180910390fd5b5f8481526003602052604090205460ff161561036057604051631f6d5aef60e01b815260040160405180910390fd5b8242111561038157604051630819bdcd60e01b815260040160405180910390fd5b5f7f7c1b8eaf7080f83dcd8c2f204378b964f83b88943bbaf768da5f952d51475d08308989896040516103b5929190610f5a565b6040805191829003822060208301959095526001600160a01b039384169082015291166060820152608081019190915260a0810186905260c0810185905260e0016040516020818303038152906040528051906020012090505f610418826107d7565b90505f61045c85858080601f0160208091040260200160405190810160405280939291908181526020018383808284375f9201919091525086939250506108099050565b90507f00000000000000000000000000000000000000000000000000000000000000006001600160a01b0316816001600160a01b0316146104b057604051632057875960e21b815260040160405180910390fd5b5f878152600360205260408082208054600160ff199182168117909255600280549091169091179055516001600160a01b038c16906104f2908c908c90610f5a565b5f604051808303815f865af19150503d805f811461052b576040519150601f19603f3d011682016040523d82523d5f602084013e610530565b606091505b505090508061055257604051632b3f6d1160e21b815260040160405180910390fd5b5050505050505050505050565b336001600160a01b037f000000000000000000000000000000000000000000000000000000000000000016146105a8576040516323019e6760e01b815260040160405180910390fd5b600254610100900460ff16156105d157604051636a0f72e360e01b815260040160405180910390fd5b5f8481526003602052604090205460ff161561060057604051631f6d5aef60e01b815260040160405180910390fd5b8242111561062157604051630819bdcd60e01b815260040160405180910390fd5b604080517f73082a753ea725f34ee48b0e8ba44fc9617ee099a208f5e080762c2aa4c6671f6020820152309181019190915260608101859052608081018490525f9060a0016040516020818303038152906040528051906020012090505f610688826107d7565b90505f6106cc85858080601f0160208091040260200160405190810160405280939291908181526020018383808284375f9201919091525086939250506108099050565b90507f00000000000000000000000000000000000000000000000000000000000000006001600160a01b0316816001600160a01b03161461072057604051632057875960e21b815260040160405180910390fd5b6002805461ff0019166101001790556001600160a01b037f000000000000000000000000000000000000000000000000000000000000000016ff5b5f6060805f805f606061076c610831565b610774610862565b604080515f80825260208201909252600f60f81b9b939a50919850469750309650945092509050565b6107aa838383600161088f565b61029657604051635274afe760e01b81526001600160a01b03841660048201526024015b60405180910390fd5b5f6108036107e36108f1565b8360405161190160f01b8152600281019290925260228201526042902090565b92915050565b5f805f806108178686610a1a565b9250925092506108278282610a63565b5090949350505050565b606061085d7f00000000000000000000000000000000000000000000000000000000000000005f610b1f565b905090565b606061085d7f00000000000000000000000000000000000000000000000000000000000000006001610b1f565b60405163a9059cbb60e01b5f8181526001600160a01b038616600452602485905291602083604481808b5af1925060015f511483166108e55783831516156108d9573d5f823e3d81fd5b5f873b113d1516831692505b60405250949350505050565b5f306001600160a01b037f00000000000000000000000000000000000000000000000000000000000000001614801561094957507f000000000000000000000000000000000000000000000000000000000000000046145b1561097357507f000000000000000000000000000000000000000000000000000000000000000090565b61085d604080517f8b73c3c69bb8fe3d512ecc4cf759cc79239f7b179b0ffacaa9a75d522b39400f60208201527f0000000000000000000000000000000000000000000000000000000000000000918101919091527f000000000000000000000000000000000000000000000000000000000000000060608201524660808201523060a08201525f9060c00160405160208183030381529060405280519060200120905090565b5f805f8351604103610a51576020840151604085015160608601515f1a610a4388828585610bc8565b955095509550505050610a5c565b505081515f91506002905b9250925092565b5f826003811115610a7657610a76610f69565b03610a7f575050565b6001826003811115610a9357610a93610f69565b03610ab15760405163f645eedf60e01b815260040160405180910390fd5b6002826003811115610ac557610ac5610f69565b03610ae65760405163fce698f760e01b8152600481018290526024016107ce565b6003826003811115610afa57610afa610f69565b03610b1b576040516335e2f38360e21b8152600481018290526024016107ce565b5050565b606060ff8314610b3957610b3283610c90565b9050610803565b818054610b4590610f7d565b80601f0160208091040260200160405190810160405280929190818152602001828054610b7190610f7d565b8015610bbc5780601f10610b9357610100808354040283529160200191610bbc565b820191905f5260205f20905b815481529060010190602001808311610b9f57829003601f168201915b50505050509050610803565b5f80807f7fffffffffffffffffffffffffffffff5d576e7357a4501ddfe92f46681b20a0841115610c0157505f91506003905082610c86565b604080515f808252602082018084528a905260ff891692820192909252606081018790526080810186905260019060a0016020604051602081039080840390855afa158015610c52573d5f803e3d5ffd5b5050604051601f1901519150506001600160a01b038116610c7d57505f925060019150829050610c86565b92505f91508190505b9450945094915050565b60605f610c9c83610ccd565b6040805160208082528183019092529192505f91906020820181803683375050509182525060208101929092525090565b5f60ff8216601f81111561080357604051632cd44ac360e21b815260040160405180910390fd5b80356001600160a01b0381168114610d0a575f80fd5b919050565b5f805f60608486031215610d21575f80fd5b610d2a84610cf4565b9250610d3860208501610cf4565b9150604084013590509250925092565b5f60208284031215610d58575f80fd5b5035919050565b5f8083601f840112610d6f575f80fd5b50813567ffffffffffffffff811115610d86575f80fd5b602083019150836020828501011115610d9d575f80fd5b9250929050565b5f805f805f805f60a0888a031215610dba575f80fd5b610dc388610cf4565b9650602088013567ffffffffffffffff80821115610ddf575f80fd5b610deb8b838c01610d5f565b909850965060408a0135955060608a0135945060808a0135915080821115610e11575f80fd5b50610e1e8a828b01610d5f565b989b979a50959850939692959293505050565b5f805f8060608587031215610e44575f80fd5b8435935060208501359250604085013567ffffffffffffffff811115610e68575f80fd5b610e7487828801610d5f565b95989497509550505050565b5f81518084525f5b81811015610ea457602081850181015186830182015201610e88565b505f602082860101526020601f19601f83011685010191505092915050565b60ff60f81b881681525f602060e06020840152610ee360e084018a610e80565b8381036040850152610ef5818a610e80565b606085018990526001600160a01b038816608086015260a0850187905284810360c0860152855180825260208088019350909101905f5b81811015610f4857835183529284019291840191600101610f2c565b50909c9b505050505050505050505050565b818382375f9101908152919050565b634e487b7160e01b5f52602160045260245ffd5b600181811c90821680610f9157607f821691505b602082108103610faf57634e487b7160e01b5f52602260045260245ffd5b5091905056fea26469706673582212205912c182da05a75350ea70c07ebd27beb85c394c6676528de26fa51f4ec882c964736f6c63430008180033",
        "linkReferences": {}
    },
    "methodIdentifiers": {
        "burn(uint256,uint256,bytes)": "80a5a371",
        "burned()": "73f42561",
        "controller()": "f77c4791",
        "eip712Domain()": "84b0196e",
        "exec(address,bytes,uint256,uint256,bytes)": "7c44cc2f",
        "owner()": "8da5cb5b",
        "sweepERC20(address,address,uint256)": "503690d1",
        "used()": "63898e2b",
        "usedNonces(uint256)": "6717e41c"
    },
    "id": 48
}