{"abi":[{"type":"constructor","inputs":[{"name":"_factory","type":"address","internalType":"address"},{"name":"_treasury","type":"address","internalType":"address"}],"stateMutability":"nonpayable"},{"type":"receive","stateMutability":"payable"},{"type":"function","name":"GAS_RESERVE","inputs":[],"outputs":[{"name":"","type":"uint256","internalType":"uint256"}],"stateMutability":"view"},{"type":"function","name":"burnPocket","inputs":[{"name":"pocket","type":"address","internalType":"address payable"},{"name":"nonce","type":"uint256","internalType":"uint256"},{"name":"expiry","type":"uint256","internalType":"uint256"},{"name":"signature","type":"bytes","internalType":"bytes"}],"outputs":[],"stateMutability":"nonpayable"},{"type":"function","name":"createPocket","inputs":[{"name":"user","type":"address","internalType":"address"},{"name":"salt","type":"uint256","internalType":"uint256"}],"outputs":[{"name":"pocket","type":"address","internalType":"address"}],"stateMutability":"nonpayable"},{"type":"function","name":"executeFromPocket","inputs":[{"name":"pocket","type":"address","internalType":"address payable"},{"name":"target","type":"address","internalType":"address"},{"name":"data","type":"bytes","internalType":"bytes"},{"name":"nonce","type":"uint256","internalType":"uint256"},{"name":"expiry","type":"uint256","internalType":"uint256"},{"name":"signature","type":"bytes","internalType":"bytes"}],"outputs":[],"stateMutability":"nonpayable"},{"type":"function","name":"factory","inputs":[],"outputs":[{"name":"","type":"address","internalType":"address"}],"stateMutability":"view"},{"type":"function","name":"feeBps","inputs":[{"name":"tier","type":"uint8","internalType":"uint8"}],"outputs":[{"name":"","type":"uint256","internalType":"uint256"}],"stateMutability":"pure"},{"type":"function","name":"pocketOwner","inputs":[{"name":"","type":"address","internalType":"address"}],"outputs":[{"name":"","type":"address","internalType":"address"}],"stateMutability":"view"},{"type":"function","name":"sweep","inputs":[{"name":"pocket","type":"address","internalType":"address payable"},{"name":"token","type":"address","internalType":"address"},{"name":"receiver","type":"address","internalType":"address"},{"name":"amount","type":"uint256","internalType":"uint256"},{"name":"tier","type":"uint8","internalType":"uint8"}],"outputs":[],"stateMutability":"nonpayable"},{"type":"function","name":"treasury","inputs":[],"outputs":[{"name":"","type":"address","internalType":"address"}],"stateMutability":"view"},{"type":"function","name":"validPocket","inputs":[{"name":"","type":"address","internalType":"address"}],"outputs":[{"name":"","type":"bool","internalType":"bool"}],"stateMutability":"view"},{"type":"error","name":"InsufficientControllerBalance","inputs":[]},{"type":"error","name":"InvalidPocket","inputs":[]},{"type":"error","name":"NotPocketOwner","inputs":[]}],"bytecode":{"object":"0x60a060405234801561000f575f80fd5b50604051610b60380380610b6083398101604081905261002e91610070565b6001600160a01b039182166080525f80546001600160a01b031916919092161790556100a1565b80516001600160a01b038116811461006b575f80fd5b919050565b5f8060408385031215610081575f80fd5b61008a83610055565b915061009860208401610055565b90509250929050565b608051610aa06100c05f395f81816101cd01526102970152610aa05ff3fe608060405260043610610092575f3560e01c8063be23649e11610057578063be23649e14610175578063be880c81146101a2578063c45a0155146101bc578063c51871cf146101ef578063e64d944714610223575f80fd5b80632f690b841461009d5780634a4ea3ea146100d957806361d027b3146100fa578063685f66f21461011857806377710aed14610156575f80fd5b3661009957005b5f80fd5b3480156100a8575f80fd5b506100bc6100b7366004610725565b610242565b6040516001600160a01b0390911681526020015b60405180910390f35b3480156100e4575f80fd5b506100f86100f3366004610794565b6103dc565b005b348015610105575f80fd5b505f546100bc906001600160a01b031681565b348015610123575f80fd5b50610146610132366004610835565b60016020525f908152604090205460ff1681565b60405190151581526020016100d0565b348015610161575f80fd5b506100f8610170366004610857565b610483565b348015610180575f80fd5b5061019461018f3660046108d1565b610540565b6040519081526020016100d0565b3480156101ad575f80fd5b506101946611c37937e0800081565b3480156101c7575f80fd5b506100bc7f000000000000000000000000000000000000000000000000000000000000000081565b3480156101fa575f80fd5b506100bc610209366004610835565b60026020525f90815260409020546001600160a01b031681565b34801561022e575f80fd5b506100f861023d3660046108ea565b610583565b5f6611c37937e0800047101561026b57604051633bf4110960e21b815260040160405180910390fd5b6040516310be69af60e31b81523060048201526001600160a01b038481166024830152604482018490527f000000000000000000000000000000000000000000000000000000000000000016906385f34d78906064016020604051808303815f875af11580156102dd573d5f803e3d5ffd5b505050506040513d601f19601f82011682018060405250810190610301919061094a565b6001600160a01b038181165f818152600160208181526040808420805460ff19169093179092556002905280822080546001600160a01b03191694891694909417909355915192935090916611c37937e08000908381818185875af1925050503d805f811461038b576040519150601f19603f3d011682016040523d82523d5f602084013e610390565b606091505b50509050806103d55760405162461bcd60e51b815260206004820152600d60248201526c11551217d195539117d1905253609a1b604482015260640160405180910390fd5b5092915050565b6001600160a01b0388165f9081526001602052604090205460ff16610414576040516306489f7360e21b815260040160405180910390fd5b604051637c44cc2f60e01b81526001600160a01b03891690637c44cc2f9061044c908a908a908a908a908a908a908a9060040161098d565b5f604051808303815f87803b158015610463575f80fd5b505af1158015610475573d5f803e3d5ffd5b505050505050505050505050565b6001600160a01b0385165f9081526001602052604090205460ff166104bb576040516306489f7360e21b815260040160405180910390fd5b6040516380a5a37160e01b81526001600160a01b038616906380a5a371906104ed9087908790879087906004016109de565b5f604051808303815f87803b158015610504575f80fd5b505af1158015610516573d5f803e3d5ffd5b5050506001600160a01b039095165f908152600160205260409020805460ff191690555050505050565b5f8160ff16600203610554575060c8919050565b8160ff16600403610568575061012c919050565b8160ff1660030361057c5750610320919050565b505f919050565b6001600160a01b0385165f9081526001602052604090205460ff166105bb576040516306489f7360e21b815260040160405180910390fd5b6001600160a01b038581165f908152600260205260409020548116908416146105f757604051630df2a2cb60e01b815260040160405180910390fd5b5f61271061060483610540565b61060e9085610a1b565b6106189190610a38565b90508015610689575f5460405163503690d160e01b81526001600160a01b0387811660048301529182166024820152604481018390529087169063503690d1906064015f604051808303815f87803b158015610672575f80fd5b505af1158015610684573d5f803e3d5ffd5b505050505b6001600160a01b03861663503690d186866106a48588610a57565b6040516001600160e01b031960e086901b1681526001600160a01b03938416600482015292909116602483015260448201526064015f604051808303815f87803b1580156106f0575f80fd5b505af1158015610702573d5f803e3d5ffd5b50505050505050505050565b6001600160a01b0381168114610722575f80fd5b50565b5f8060408385031215610736575f80fd5b82356107418161070e565b946020939093013593505050565b5f8083601f84011261075f575f80fd5b50813567ffffffffffffffff811115610776575f80fd5b60208301915083602082850101111561078d575f80fd5b9250929050565b5f805f805f805f8060c0898b0312156107ab575f80fd5b88356107b68161070e565b975060208901356107c68161070e565b9650604089013567ffffffffffffffff808211156107e2575f80fd5b6107ee8c838d0161074f565b909850965060608b0135955060808b0135945060a08b0135915080821115610814575f80fd5b506108218b828c0161074f565b999c989b5096995094979396929594505050565b5f60208284031215610845575f80fd5b81356108508161070e565b9392505050565b5f805f805f6080868803121561086b575f80fd5b85356108768161070e565b94506020860135935060408601359250606086013567ffffffffffffffff81111561089f575f80fd5b6108ab8882890161074f565b969995985093965092949392505050565b803560ff811681146108cc575f80fd5b919050565b5f602082840312156108e1575f80fd5b610850826108bc565b5f805f805f60a086880312156108fe575f80fd5b85356109098161070e565b945060208601356109198161070e565b935060408601356109298161070e565b92506060860135915061093e608087016108bc565b90509295509295909350565b5f6020828403121561095a575f80fd5b81516108508161070e565b81835281816020850137505f828201602090810191909152601f909101601f19169091010190565b6001600160a01b038816815260a0602082018190525f906109b1908301888a610965565b86604084015285606084015282810360808401526109d0818587610965565b9a9950505050505050505050565b848152836020820152606060408201525f6109fd606083018486610965565b9695505050505050565b634e487b7160e01b5f52601160045260245ffd5b8082028115828204841417610a3257610a32610a07565b92915050565b5f82610a5257634e487b7160e01b5f52601260045260245ffd5b500490565b81810381811115610a3257610a32610a0756fea264697066735822122008d33f9faf80d8bcbdb60e70b59656a38f98aa8adc28a87255ce7f350616c87464736f6c63430008140033","linkReferences":{}},"methodIdentifiers":{"GAS_RESERVE()":"be880c81","burnPocket(address,uint256,uint256,bytes)":"77710aed","createPocket(address,uint256)":"2f690b84","executeFromPocket(address,address,bytes,uint256,uint256,bytes)":"4a4ea3ea","factory()":"c45a0155","feeBps(uint8)":"be23649e","pocketOwner(address)":"c51871cf","sweep(address,address,address,uint256,uint8)":"e64d9447","treasury()":"61d027b3","validPocket(address)":"685f66f2"},"id":32}