{
    "abi": [
        {
            "type": "constructor",
            "inputs": [],
            "stateMutability": "nonpayable"
        },
        {
            "type": "function",
            "name": "allowance",
            "inputs": [
                {
                    "name": "owner",
                    "type": "address",
                    "internalType": "address"
                },
                {
                    "name": "spender",
                    "type": "address",
                    "internalType": "address"
                }
            ],
            "outputs": [
                {
                    "name": "",
                    "type": "uint256",
                    "internalType": "uint256"
                }
            ],
            "stateMutability": "view"
        },
        {
            "type": "function",
            "name": "approve",
            "inputs": [
                {
                    "name": "spender",
                    "type": "address",
                    "internalType": "address"
                },
                {
                    "name": "amount",
                    "type": "uint256",
                    "internalType": "uint256"
                }
            ],
            "outputs": [
                {
                    "name": "",
                    "type": "bool",
                    "internalType": "bool"
                }
            ],
            "stateMutability": "nonpayable"
        },
        {
            "type": "function",
            "name": "balanceOf",
            "inputs": [
                {
                    "name": "account",
                    "type": "address",
                    "internalType": "address"
                }
            ],
            "outputs": [
                {
                    "name": "",
                    "type": "uint256",
                    "internalType": "uint256"
                }
            ],
            "stateMutability": "view"
        },
        {
            "type": "function",
            "name": "claimAirdrop",
            "inputs": [],
            "outputs": [],
            "stateMutability": "nonpayable"
        },
        {
            "type": "function",
            "name": "decimals",
            "inputs": [],
            "outputs": [
                {
                    "name": "",
                    "type": "uint8",
                    "internalType": "uint8"
                }
            ],
            "stateMutability": "view"
        },
        {
            "type": "function",
            "name": "decreaseAllowance",
            "inputs": [
                {
                    "name": "spender",
                    "type": "address",
                    "internalType": "address"
                },
                {
                    "name": "subtractedValue",
                    "type": "uint256",
                    "internalType": "uint256"
                }
            ],
            "outputs": [
                {
                    "name": "",
                    "type": "bool",
                    "internalType": "bool"
                }
            ],
            "stateMutability": "nonpayable"
        },
        {
            "type": "function",
            "name": "increaseAllowance",
            "inputs": [
                {
                    "name": "spender",
                    "type": "address",
                    "internalType": "address"
                },
                {
                    "name": "addedValue",
                    "type": "uint256",
                    "internalType": "uint256"
                }
            ],
            "outputs": [
                {
                    "name": "",
                    "type": "bool",
                    "internalType": "bool"
                }
            ],
            "stateMutability": "nonpayable"
        },
        {
            "type": "function",
            "name": "name",
            "inputs": [],
            "outputs": [
                {
                    "name": "",
                    "type": "string",
                    "internalType": "string"
                }
            ],
            "stateMutability": "view"
        },
        {
            "type": "function",
            "name": "symbol",
            "inputs": [],
            "outputs": [
                {
                    "name": "",
                    "type": "string",
                    "internalType": "string"
                }
            ],
            "stateMutability": "view"
        },
        {
            "type": "function",
            "name": "totalSupply",
            "inputs": [],
            "outputs": [
                {
                    "name": "",
                    "type": "uint256",
                    "internalType": "uint256"
                }
            ],
            "stateMutability": "view"
        },
        {
            "type": "function",
            "name": "transfer",
            "inputs": [
                {
                    "name": "to",
                    "type": "address",
                    "internalType": "address"
                },
                {
                    "name": "amount",
                    "type": "uint256",
                    "internalType": "uint256"
                }
            ],
            "outputs": [
                {
                    "name": "",
                    "type": "bool",
                    "internalType": "bool"
                }
            ],
            "stateMutability": "nonpayable"
        },
        {
            "type": "function",
            "name": "transferFrom",
            "inputs": [
                {
                    "name": "from",
                    "type": "address",
                    "internalType": "address"
                },
                {
                    "name": "to",
                    "type": "address",
                    "internalType": "address"
                },
                {
                    "name": "amount",
                    "type": "uint256",
                    "internalType": "uint256"
                }
            ],
            "outputs": [
                {
                    "name": "",
                    "type": "bool",
                    "internalType": "bool"
                }
            ],
            "stateMutability": "nonpayable"
        },
        {
            "type": "event",
            "name": "Approval",
            "inputs": [
                {
                    "name": "owner",
                    "type": "address",
                    "indexed": true,
                    "internalType": "address"
                },
                {
                    "name": "spender",
                    "type": "address",
                    "indexed": true,
                    "internalType": "address"
                },
                {
                    "name": "value",
                    "type": "uint256",
                    "indexed": false,
                    "internalType": "uint256"
                }
            ],
            "anonymous": false
        },
        {
            "type": "event",
            "name": "Transfer",
            "inputs": [
                {
                    "name": "from",
                    "type": "address",
                    "indexed": true,
                    "internalType": "address"
                },
                {
                    "name": "to",
                    "type": "address",
                    "indexed": true,
                    "internalType": "address"
                },
                {
                    "name": "value",
                    "type": "uint256",
                    "indexed": false,
                    "internalType": "uint256"
                }
            ],
            "anonymous": false
        }
    ],
    "bytecode": {
        "object": "0x608060405234801562000010575f80fd5b506040518060400160405280600e81526020016d2437b732bcb837ba102a37b5b2b760911b81525060405180604001604052806006815260200165242a27a5a2a760d11b81525081600390816200006891906200026f565b5060046200007782826200026f565b505050620000963369d3c21bcecceda10000006200009c60201b60201c565b6200035d565b6001600160a01b038216620000f85760405162461bcd60e51b815260206004820152601f60248201527f45524332303a206d696e7420746f20746865207a65726f20616464726573730060448201526064015b60405180910390fd5b620001055f83836200016e565b8060025f82825462000118919062000337565b90915550506001600160a01b0382165f81815260208181526040808320805486019055518481527fddf252ad1be2c89b69c2b068fc378daa952ba7f163c4a11628f55a4df523b3ef910160405180910390a35050565b6001600160a01b0383166200018257505050565b60405162461bcd60e51b815260206004820152601960248201527f484f4e4559504f543a2043616e6e6f74207472616e73666572000000000000006044820152606401620000ef565b505050565b634e487b7160e01b5f52604160045260245ffd5b600181811c90821680620001f957607f821691505b6020821081036200021857634e487b7160e01b5f52602260045260245ffd5b50919050565b601f821115620001cb575f81815260208120601f850160051c81016020861015620002465750805b601f850160051c820191505b81811015620002675782815560010162000252565b505050505050565b81516001600160401b038111156200028b576200028b620001d0565b620002a3816200029c8454620001e4565b846200021e565b602080601f831160018114620002d9575f8415620002c15750858301515b5f19600386901b1c1916600185901b17855562000267565b5f85815260208120601f198616915b828110156200030957888601518255948401946001909101908401620002e8565b50858210156200032757878501515f19600388901b60f8161c191681555b5050505050600190811b01905550565b808201808211156200035757634e487b7160e01b5f52601160045260245ffd5b92915050565b610987806200036b5f395ff3fe608060405234801561000f575f80fd5b50600436106100b1575f3560e01c80635b88349d1161006e5780635b88349d1461013d57806370a082311461014757806395d89b411461016f578063a457c2d714610177578063a9059cbb1461018a578063dd62ed3e1461019d575f80fd5b806306fdde03146100b5578063095ea7b3146100d357806318160ddd146100f657806323b872dd14610108578063313ce5671461011b578063395093511461012a575b5f80fd5b6100bd6101b0565b6040516100ca91906107e2565b60405180910390f35b6100e66100e1366004610848565b610240565b60405190151581526020016100ca565b6002545b6040519081526020016100ca565b6100e6610116366004610870565b610259565b604051601281526020016100ca565b6100e6610138366004610848565b61027c565b61014561029d565b005b6100fa6101553660046108a9565b6001600160a01b03165f9081526020819052604090205490565b6100bd6102b2565b6100e6610185366004610848565b6102c1565b6100e6610198366004610848565b610340565b6100fa6101ab3660046108c9565b61034d565b6060600380546101bf906108fa565b80601f01602080910402602001604051908101604052809291908181526020018280546101eb906108fa565b80156102365780601f1061020d57610100808354040283529160200191610236565b820191905f5260205f20905b81548152906001019060200180831161021957829003601f168201915b5050505050905090565b5f3361024d818585610377565b60019150505b92915050565b5f3361026685828561049a565b610271858585610512565b506001949350505050565b5f3361024d81858561028e838361034d565b6102989190610932565b610377565b6102b033683635c9adc5dea000006106bf565b565b6060600480546101bf906108fa565b5f33816102ce828661034d565b9050838110156103335760405162461bcd60e51b815260206004820152602560248201527f45524332303a2064656372656173656420616c6c6f77616e63652062656c6f77604482015264207a65726f60d81b60648201526084015b60405180910390fd5b6102718286868403610377565b5f3361024d818585610512565b6001600160a01b039182165f90815260016020908152604080832093909416825291909152205490565b6001600160a01b0383166103d95760405162461bcd60e51b8152602060048201526024808201527f45524332303a20617070726f76652066726f6d20746865207a65726f206164646044820152637265737360e01b606482015260840161032a565b6001600160a01b03821661043a5760405162461bcd60e51b815260206004820152602260248201527f45524332303a20617070726f766520746f20746865207a65726f206164647265604482015261737360f01b606482015260840161032a565b6001600160a01b038381165f8181526001602090815260408083209487168084529482529182902085905590518481527f8c5be1e5ebec7d5bd14f71427d1e84f3dd0314c0f7b2291e5b200ac8c7c3b925910160405180910390a3505050565b5f6104a5848461034d565b90505f19811461050c57818110156104ff5760405162461bcd60e51b815260206004820152601d60248201527f45524332303a20696e73756666696369656e7420616c6c6f77616e6365000000604482015260640161032a565b61050c8484848403610377565b50505050565b6001600160a01b0383166105765760405162461bcd60e51b815260206004820152602560248201527f45524332303a207472616e736665722066726f6d20746865207a65726f206164604482015264647265737360d81b606482015260840161032a565b6001600160a01b0382166105d85760405162461bcd60e51b815260206004820152602360248201527f45524332303a207472616e7366657220746f20746865207a65726f206164647260448201526265737360e81b606482015260840161032a565b6105e3838383610787565b6001600160a01b0383165f908152602081905260409020548181101561065a5760405162461bcd60e51b815260206004820152602660248201527f45524332303a207472616e7366657220616d6f756e7420657863656564732062604482015265616c616e636560d01b606482015260840161032a565b6001600160a01b038481165f81815260208181526040808320878703905593871680835291849020805487019055925185815290927fddf252ad1be2c89b69c2b068fc378daa952ba7f163c4a11628f55a4df523b3ef910160405180910390a361050c565b6001600160a01b0382166107155760405162461bcd60e51b815260206004820152601f60248201527f45524332303a206d696e7420746f20746865207a65726f206164647265737300604482015260640161032a565b6107205f8383610787565b8060025f8282546107319190610932565b90915550506001600160a01b0382165f81815260208181526040808320805486019055518481527fddf252ad1be2c89b69c2b068fc378daa952ba7f163c4a11628f55a4df523b3ef910160405180910390a35050565b6001600160a01b03831661079a57505050565b60405162461bcd60e51b815260206004820152601960248201527f484f4e4559504f543a2043616e6e6f74207472616e7366657200000000000000604482015260640161032a565b5f6020808352835180828501525f5b8181101561080d578581018301518582016040015282016107f1565b505f604082860101526040601f19601f8301168501019250505092915050565b80356001600160a01b0381168114610843575f80fd5b919050565b5f8060408385031215610859575f80fd5b6108628361082d565b946020939093013593505050565b5f805f60608486031215610882575f80fd5b61088b8461082d565b92506108996020850161082d565b9150604084013590509250925092565b5f602082840312156108b9575f80fd5b6108c28261082d565b9392505050565b5f80604083850312156108da575f80fd5b6108e38361082d565b91506108f16020840161082d565b90509250929050565b600181811c9082168061090e57607f821691505b60208210810361092c57634e487b7160e01b5f52602260045260245ffd5b50919050565b8082018082111561025357634e487b7160e01b5f52601160045260245ffdfea264697066735822122005c2100b56d98ecddf1c6cde0ca5eed4c1f003287545f12616b1b1b5a49afe9764736f6c63430008140033",
        "linkReferences": {}
    },
    "methodIdentifiers": {
        "allowance(address,address)": "dd62ed3e",
        "approve(address,uint256)": "095ea7b3",
        "balanceOf(address)": "70a08231",
        "claimAirdrop()": "5b88349d",
        "decimals()": "313ce567",
        "decreaseAllowance(address,uint256)": "a457c2d7",
        "increaseAllowance(address,uint256)": "39509351",
        "name()": "06fdde03",
        "symbol()": "95d89b41",
        "totalSupply()": "18160ddd",
        "transfer(address,uint256)": "a9059cbb",
        "transferFrom(address,address,uint256)": "23b872dd"
    },
    "id": 4
}